:020000040000FA
:100000000C9446000C9463000C9463000C94630001
:100010000C9463000C9463000C9463000C946300D4
:100020000C9463000C9463000C9463000C946300C4
:100030000C9463000C9463000C9463000C946300B4
:100040000C9463000C9463000C9463000C946300A4
:100050000C9463000C9463000C9463000C94630094
:100060000C9463000C9463000C9463000C94630084
:100070000C9463000C9463000C9463000C94630074
:100080000C9463000C9463000C94630011241FBE55
:10009000CFEFD0E4DEBFCDBF13E0A0E0B1E0E6EAF1
:1000A000F1E202C005900D92AA31B107D9F723E021
:1000B000AAE1B3E001C01D92A132B207E1F70E94AC
:1000C000C40C0C94D1100C940000E1E6F2E09C0109
:1000D000205E3F4F4191519161917191DC014D93AF
:1000E0005D936D937D93CD01A217B30799F70895A2
:1000F0002F923F924F925F926F927F928F929F9238
:10010000AF92BF92CF92DF92EF92FF920F931F9325
:10011000CF93DF93CDB7DEB7CE53D1400FB6F8946F
:10012000DEBF0FBECDBFC55CDE4F8883CB53D14051
:10013000C45CDE4F9883CC53D140FE01319680E001
:1001400091E0DF019C011D9221503040E1F7CF5D2D
:10015000DE4F6883C152D140CE5DDE4F7883C252FC
:10016000D140C35DDE4FF983E883CD52D140E054E6
:10017000F109C35DDE4F28803980CD52D140C12CBA
:10018000D12C760130E1C316D104E104F10408F06A
:100190009CC2CF5DDE4FA881B981C152D1406D9123
:1001A0007D918D919C910E94B10DD1016D937D93B4
:1001B0008D939C931397BFEFCB1ADB0AEB0AFB0AD4
:1001C000CF5DDE4F28813981C152D1402C5F3F4F36
:1001D000CF5DDE4F39832883C152D14034E0230EF6
:1001E000311C349640E4C416D104E104F10451F604
:1001F0001E0151E0250E351E80E2C55CDE4FE88110
:10020000CB53D140C45CDE4FF881CC53D140D101F7
:1002100001900D928A95E1F7D1018D909D90AD905E
:10022000BC90139714964D905D906D907C901797AD
:10023000CF5DDE4F488259826A827B82C152D140B3
:1002400018964D905D906D907C901B97CD5CDE4F25
:10025000488259826A827B82C353D1401C964D905A
:100260005D906D907C901F97C95CDE4F48825982EB
:100270006A827B82C753D1405096CD90DD90ED903D
:10028000FC90539754964D905D906D907C9057974D
:10029000C75DDE4F488259826A827B82C952D14053
:1002A00058964D905D906D907C905B97C15DDE4F50
:1002B000488259826A827B82CF52D1405C964D90AF
:1002C0005D906D907C905F97CB5DDE4F4882598248
:1002D0006A827B82C552D140E1E6F1E0C35CDE4F29
:1002E000F983E883CD53D140C35DDE4FE881F981C6
:1002F000CD52D14081919191A191B191C35DDE4FD9
:10030000F983E883CD52D140B701A6012AE1440F19
:10031000551F661F771F2A95D1F797018601E6E0E2
:100320003695279517950795EA95D1F7402B512BD0
:10033000622B732B97018601F5E1000F111F221F1D
:10034000331FFA95D1F726013701EBE076946794D5
:1003500057944794EA95D1F7042915292629372976
:10036000042715272627372726013701F9E1769438
:10037000679457944794FA95D1F7B701A601E7E03F
:10038000440F551F661F771FEA95D1F74429552959
:10039000662977290427152726273727C35CDE4FD0
:1003A000E881F981CD53D140419051906190719095
:1003B000C35CDE4FF983E883CD53D140840D951D96
:1003C000A61DB71D080F191F2A1F3B1F2601370145
:1003D0004094509460947094C15DDE4F488159817F
:1003E0006A817B81CF52D1404422552266227722F6
:1003F000C75DDE4F88819981AA81BB81C952D140F6
:100400008C219D21AE21BF2184259525A625B725C8
:10041000800F911FA21FB31FCB5DDE4F4880598014
:100420006A807B80C552D140840D951DA61DB71DE5
:10043000B501A401FEE1440F551F661F771FFA9511
:10044000D1F72401350112E07694679457944794CC
:100450001A95D1F7442A552A662A772AB501A401AC
:1004600003E1440F551F661F771F0A95D1F79501C9
:100470008401EDE03695279517950795EA95D1F714
:10048000402B512B622B732B44265526662677264C
:10049000B501A401F6E17695679557954795FA95CC
:1004A000D1F795018401EAE0000F111F221F331FCD
:1004B000EA95D1F7402B512B622B732B4425552500
:1004C00066257725CF5DDE4F088119812A813B8122
:1004D000C152D140082519252A253B25CD5CDE4F88
:1004E000488059806A807B80C353D1400421152104
:1004F00026213721CF5DDE4F488059806A807B807E
:10050000C152D140482059206A207B20042515255E
:1005100026253725040F151F261F371F080F191F03
:100520002A1F3B1FC95CDE4F488159816A817B814C
:10053000C753D140840F951FA61FB71FCD5CDE4F58
:10054000488059806A807B80C353D140C95CDE4FAC
:10055000488259826A827B82C753D140C15DDE4F97
:10056000488159816A817B81CF52D140CB5DDE4F7A
:10057000488359836A837B83C552D140C35DDE4F74
:1005800048805980CD52D1402414350409F03FC130
:10059000CF5FDE4F088319832A833B83C150D1404C
:1005A000CB5FDE4F88829982AA82BB82C550D14040
:1005B000CF5DDE4F288139814A815B81C152D140B4
:1005C000C75FDE4F288339834A835B83C950D1409C
:1005D000CD5CDE4F488159816A817B81C353D14014
:1005E000C35FDE4F488359836A837B83CD50D140FC
:1005F000CF5EDE4F88839983AA83BB83C151D140EC
:10060000CB5EDE4FC882D982EA82FB82C551D140DF
:10061000C75DDE4F688179818A819B81C952D14053
:10062000C75EDE4F688379838A839B83C951D1403B
:10063000C15DDE4F88819981AA81BB81CF52D140B3
:10064000C35EDE4F88839983AA83BB83CD51D1409B
:10065000C55CDE4FA881CB53D140C45CDE4FB8816E
:10066000CC53D140FE01EF5FFE4FCD01809601914A
:100670001191219131914D915D916D917C911397E3
:10068000400F511F621F731F4D935D936D937D93B8
:100690008A179B0761F7C25CDE4F0FB6F894DEBF86
:1006A0000FBECDBFDF91CF911F910F91FF90EF90C3
:1006B000DF90CF90BF90AF909F908F907F906F9082
:1006C0005F904F903F902F9008950481158126816F
:1006D000378180AC91ACA2ACB3AC24013501AFE062
:1006E000440C551C661C771CAA95D1F7D501C40192
:1006F00041E1B695A795979587954A95D1F7482AF0
:10070000592A6A2A7B2AB501A401ADE0440F551F7E
:10071000661F771FAA95D1F7D501C401072E73E193
:10072000B695A795979587957A95D1F7702D842BD7
:10073000952BA62BB72B84259525A625B7254AE012
:10074000B694A794979487944A95D1F788259925CC
:10075000AA25BB25408151816281738184A095A027
:10076000A6A0B7A0480D591D6A1D7B1D840F951FBB
:10077000A61FB71F4801590157E0B694A794979454
:1007800087945A95D1F7B901A801032E39E1440F96
:10079000551F661F771F3A95D1F7302D842A952A69
:1007A000A62AB72AB901A801032E3EE0440F551F1F
:1007B000661F771F3A95D1F7302D28013901032E96
:1007C00032E176946794579447943A95D1F7302D57
:1007D0004429552966297729482559256A257B25E5
:1007E000689412F836952795179507951694D1F7C2
:1007F0004027512762277327480F591F6A1F7B1F05
:10080000D1014D935D936D937C931397D4CCC75DC9
:10081000DE4F488059806A807B80C952D140C15DDB
:10082000DE4F488259826A827B82CF52D140C75DB7
:10083000DE4FC882D982EA82FB82C952D1406C0164
:100840007D01CF5DDE4F488159816A817B81C15234
:10085000D140CD5CDE4F488359836A837B83C35389
:10086000D140CF5DDE4F88829982AA82BB82C1527D
:10087000D1404801590138CD8F929F92AF92BF92DB
:10088000CF92DF92EF92FF920F931F93CF93DF935C
:100890008C0149015A01EB01C12CD12C7601C814FD
:1008A000D904EA04FB0469F4DF91CF911F910F9101
:1008B000FF90EF90DF90CF90BF90AF909F908F9080
:1008C0000895BE01C8010E9478008FEFC81AD80AA7
:1008D000E80AF80AC05CDF4FE2CF4F925F926F9256
:1008E0007F928F929F92AF92BF92CF92DF92EF92C0
:1008F000FF920F931F93CF93DF93CDB7DEB7289767
:100900000FB6F894DEBF0FBECDBF49015A016B018F
:100910007C01F801D80180E88D9340E050E0BA01F5
:1009200087E7482E512C612C712C481859086A0809
:100930007B08930182010F73112722273327401769
:1009400051076207730708F47DC09401A501B60141
:10095000C70103E00E94B80D5B01B82FA92FB901B0
:10096000CA010E94B10D6B017C01B5018B2F9A2F3A
:1009700000E20E94D30DC901DA010FE340225524A1
:100980004E0E5F1EF20131964B2F552766277727B3
:10099000B82EAA2499248824482959296A297B2910
:1009A000892E9A2EAB2EBB248824AA24BB24482946
:1009B00059296A297B29BA2FA92F982F8827882798
:1009C0009927BB274C015D01842A952AA62AB72ABC
:1009D000A501940189823A834B835C8346015701C8
:1009E0009601A50160E070E080E090E000E20E94E6
:1009F000B80DA9812A2BD20111962C93BA813B2BD9
:100A000031830B81402B42831C81512B53836483A0
:100A100075838683978328960FB6F894DEBF0FBE42
:100A2000CDBFDF91CF911F910F91FF90EF90DF909D
:100A3000CF90BF90AF909F908F907F906F905F907E
:100A40004F9008951D924F5F5F4F6F4F7F4F77CF4D
:100A50002F923F924F925F926F927F928F929F92CE
:100A6000AF92BF92CF92DF92EF92FF920F931F93BC
:100A7000CF93DF93CDB7DEB7CF58D1090FB6F89437
:100A8000DEBF0FBECDBFC757DF4F99838883C958DC
:100A9000D040CF57DF4F2883C158D040C557DF4FD4
:100AA0003883CB58D040C457DF4F4883CC58D04010
:100AB000C357DF4F5883CD58D040C257DF4F6883AC
:100AC000CE58D040C157DF4F7883CF58D040B701C0
:100AD000D601C501807C25013601481A590A6A0AE7
:100AE0007B0A1701280E391EA601950186E056954E
:100AF0004795379527958A95D1F7C757DF4F888156
:100B00009981C958D0400E943C0445015601940186
:100B1000A50160E070E080E090E05801CF57DF4F22
:100B2000C880C158D040C557DF4FD880CB58D0407F
:100B3000C457DF4FE880CC58D040C357DF4FF88010
:100B4000CD58D040C257DF4F0881CE58D040C15752
:100B5000DF4F1881CF58D0400E94EF0DCF57DF4FA5
:100B60002883C158D040CE57DF4F3883C258D04079
:100B7000CD57DF4F4883C358D040CC57DF4F588301
:100B8000C458D040CB57DF4F6883C558D040CA57B0
:100B9000DF4F7883C658D040C957DF4F8883C75886
:100BA000D040C857DF4F9883C858D04097E7A92E48
:100BB000B12CC12CD12CCF57DF4F88819981AA81CC
:100BC000BB81C158D040A81AB90ACA0ADB0A9FE300
:100BD000A922BB24CC24DD24D301C2010996A11D86
:100BE000B11DA80EB91ECA1EDB1EDE0111967D01C5
:100BF00080E8FD0111928A95E9F7A201B101CD01CA
:100C00000E94F80D8701040D151DCF57DF4F288175
:100C1000C158D040CE57DF4F3881C258D040CD5751
:100C2000DF4F4881C358D040CC57DF4F5881C4585C
:100C3000D040CB57DF4F6881C558D040CA57DF4FEF
:100C40007881C658D040C957DF4F8881C758D040F7
:100C5000C857DF4F9881C858D0400E946D04A60144
:100C6000950166E056954795379527956A95D1F792
:100C7000B701C757DF4F88819981C958D0400E947A
:100C80003C04C157DF4F0FB6F894DEBF0FBECDBF97
:100C9000DF91CF911F910F91FF90EF90DF90CF9058
:100CA000BF90AF909F908F907F906F905F904F908C
:100CB0003F902F900895FC01DB019C01205E3F4F87
:100CC00061917191819191910E94B10D6D937D938C
:100CD0008D939D93E217F30799F708954F925F92D2
:100CE0006F927F928F929F92AF92BF92CF92DF923C
:100CF000EF92FF920F931F93CF93DF93CDB7DEB7A1
:100D0000A0970FB6F894DEBF0FBECDBF490120E219
:100D1000E1E4F1E0DE01119601900D922A95E1F7F0
:100D20002A013B0120EC42225A016B01A418B508AC
:100D3000C608D7087C01E40CF51C9A01AB0166E0FB
:100D400056954795379527956A95D1F7BC01CE0101
:100D500001960E943C04B301A20182019B0140E084
:100D600050E060E070E0CE0101960E942805B401D9
:100D7000CE0101960E945B06A0960FB6F894DEBFE6
:100D80000FBECDBFDF91CF911F910F91FF90EF90DC
:100D9000DF90CF90BF90AF909F908F907F906F909B
:100DA0005F904F900895843038F48230F8F464E016
:100DB00070E080E090E008958630C8F381E08F9382
:100DC00082E38F9381EB92E09F938F9384ED92E087
:100DD0009F938F93809120038F9380911F038F9314
:100DE0000E94080E8DEF90E00E94D11068E070E044
:100DF00080E090E00895843038F48230F8F460E4C4
:100E000070E080E090E008958630C8F381E08F9331
:100E10008AE58F9381EB92E09F938F9384ED92E02C
:100E20009F938F93809120038F9380911F038F93C3
:100E30000E94080E8DEF90E00E94D11060E870E0F3
:100E400080E090E00895823061F1E0F4882399F128
:100E5000813061F181E08F9382E88F9381EB92E0A2
:100E60009F938F9384ED92E09F938F9380912003C3
:100E70008F9380911F038F930E94080E8DEF90E057
:100E80000E94D110843041F088F0853019F764E079
:100E900070E080E090E0089565E070E080E090E030
:100EA000089566E070E080E090E0089568E070E00A
:100EB00080E090E0089567E070E080E090E00895C1
:100EC000823089F1E0F48823C1F1813039F181E089
:100ED0008F938AEA8F9381EB92E09F938F9384EDB7
:100EE00092E09F938F93809120038F9380911F03B3
:100EF0008F930E94080E8DEF90E00E94D1108430F5
:100F000041F0B0F0853019F760E170E080E090E0EA
:100F1000089564E170E080E090E0089560E270E0A0
:100F200080E090E0089560E370E080E090E0089554
:100F300060E470E080E090E008956CE170E080E0B3
:100F400090E008954F925F926F927F928F929F925E
:100F5000AF92BF92CF92DF92EF92FF920F931F93C7
:100F6000CF93DF93CDB7DEB7C05ED1090FB6F8944B
:100F7000DEBF0FBECDBF3C01CB01BA01A9015601B6
:100F800067014E0121E8820E911C20E4F4011192C8
:100F90002A95E9F7413451056105710508F09CC0B7
:100FA000BC01C4010E94F80D7E01F1E4EF0EF11CBA
:100FB00040E450E066E370E0C7010E94010EF701D3
:100FC0002401D4019D91808189278193E815F90539
:100FD000C9F740E450E06CE570E0CE0101960E9454
:100FE000010ECE0101964C01F20191912F01F40105
:100FF0008081892781934F01EE15FF05A9F780E2D3
:10100000E1E8F2E0DE01AF53BF4F01900D928A9507
:10101000E1F7CE018F539F4F0E94650021E030E041
:1010200040E050E0B401CE018F539F4F0E943C043A
:10103000780100E410E020E030E040E050E060E0C3
:1010400070E0CE018F539F4F0E942805B401CE015E
:101050008F539F4F0E945B06CE018F539F4F0E947C
:10106000650021E030E040E050E0BE016F5F7F4F5F
:10107000CE018F539F4F0E943C0480E2A82EB12CDA
:10108000C12CD12C740120E030E040E050E060E061
:1010900070E0CE018F539F4F0E942805B301CE010F
:1010A0008F539F4F0E945B06C052DF4F0FB6F894DC
:1010B000DEBF0FBECDBFDF91CF911F910F91FF908B
:1010C000EF90DF90CF90BF90AF909F908F907F90E8
:1010D0006F905F904F90089594010E946E0664CFC8
:1010E0006F3F2FEF720782072FE7920750F46115C9
:1010F00071058105910549F0660F771F881F991FBB
:1011000008956FEF7FEFCB01089561E070E080E01C
:1011100090E008958130D1F0D8F08230D9F01F925C
:1011200080E38F9387EF92E09F938F9384ED92E01B
:101130009F938F93809120038F9380911F038F93B0
:101140000E94080E8DEF90E00E94D11080E008957B
:1011500082E0089581E008954F925F926F927F92AE
:101160008F929F92AF92BF92CF92DF92EF92FF92B7
:101170000F931F93CF93DF93CDB7DEB7440F551F67
:10118000440F551F480F591FF801EE0FFF1FEE0FB8
:10119000FF1FE80FF91F880C991C880C991C880EFA
:1011A000991EDA014D905D906D907C9000811181C7
:1011B00022813381400E511E621E731ED4010D9197
:1011C0001D912D913C910425152526253725B80123
:1011D00089019B01DA014D925D926D927C92139789
:1011E000D4010D931D932D933C931397CC0CDD1CD0
:1011F000CC0CDD1C5C01AC0CBD1CD501CD90DD9090
:10120000ED90FC9013970C0D1D1D2E1D3F1D408071
:1012100051806280738040265126622673267301B6
:1012200062018CE0CC0CDD1CEE1CFF1C8A95D1F712
:1012300094E176946794579447949A95D1F74C2803
:101240005D286E287F280D931D932D933C93139753
:101250004082518262827382DA010D911D912D913B
:101260003C91400E511E621E731ED4010D911D91C2
:101270002D913C910425152526253725B02F032FC8
:10128000322F212F1B2FDA014D925D926D927C92AD
:101290001397D4010D931D932D933C931397D50170
:1012A0004D915D916D917C911397400F511F621F7D
:1012B000731F00811181228133810427152726277E
:1012C00037276801790187E0CC0CDD1CEE1CFF1C80
:1012D0008A95D1F799E136952795179507959A95AF
:1012E000D1F70C291D292E293F294D935D936D932C
:1012F0007C9313970083118322833383DF91CF91F3
:101300001F910F91FF90EF90DF90CF90BF90AF9023
:101310009F908F907F906F905F904F9008958F92E5
:101320009F92AF92BF92CF92DF92EF92FF920F9374
:101330001F93CF93DF93EC018CE0882E912CA12C8E
:10134000B12C98E0C92ED12CE12CF12C04E010E056
:1013500020E030E040E050E0BA01CE010E94AC084D
:101360002DE0822E912CA12CB12C39E0C32ED12C52
:10137000E12CF12C05E010E020E030E041E050E00D
:1013800060E070E0CE010E94AC084EE0842E912C0B
:10139000A12CB12C5AE0C52ED12CE12CF12C06E069
:1013A00010E020E030E042E050E060E070E0CE018C
:1013B0000E94AC086FE0862E912CA12CB12C7BE012
:1013C000C72ED12CE12CF12C07E010E020E030E01A
:1013D00043E050E060E070E0CE010E94AC08EAE03B
:1013E000CE2ED12CE12CF12C05E010E020E030E0F5
:1013F00040E050E0BA01CE010E94AC08FCE08F2E24
:10140000912CA12CB12CABE0CA2ED12CE12CF12CCB
:1014100006E010E020E030E041E050E060E070E005
:10142000CE010E94AC08BDE08B2E912CA12CB12CDA
:1014300018E0C12ED12CE12CF12C07E010E020E0C7
:1014400030E042E050E060E070E0CE010E94AC0885
:101450000EE0802E912CA12CB12C89E0C82ED12C2D
:10146000E12CF12C04E010E020E030E043E050E01B
:1014700060E070E0CE010E94AC08DF91CF911F9137
:101480000F91FF90EF90DF90CF90BF90AF909F9023
:101490008F900895CF92DF92EF92FF920F931F9358
:1014A000CF93DF93FC0185E698E7A0E7B1E6808360
:1014B0009183A283B3838EE694E6A0E2B3E38483B0
:1014C0009583A683B78382E39DE2A2E6B9E780878E
:1014D0009187A287B38784E795E6A0E2BBE684877D
:1014E0009587A687B787DB01EF016096CB018096D1
:1014F000CD90DD90ED90FD90C992D992E992F9924C
:101500008A179B07A9F700AB11AB22AB33ABDA010B
:10151000F496CA010C964D915D916D917D91419328
:10152000519361937193A817B907A9F7DF91CF91F0
:101530001F910F91FF90EF90DF90CF9008954F9201
:101540005F926F927F928F929F92AF92BF92CF9253
:10155000DF92EF92FF920F931F93CF93DF93CDB75C
:10156000DEB7C058D1090FB6F894DEBF0FBECDBFAD
:101570003C016B0149015A0180E4F301DE01AF5BDC
:10158000BF4F01900D928A95E1F77E0121E4E20EB2
:10159000F11CF70180A991A9A2A9B3A9880D991DF1
:1015A000AA1DBB1D80AB91ABA2ABB3ABC7010E9420
:1015B0008F09C7010E948F09C7010E948F09C701C7
:1015C0000E948F09C7010E948F09C7010E948F09DD
:1015D000C7010E948F09C7010E948F09C7010E949D
:1015E0008F09C7010E948F09C701F3019301205C95
:1015F0003F4FD70141905190619071904D915D9115
:101600006D917C911397440D551D661D771D4D936B
:101610005D936D937D93E217F30761F7D701D09641
:101620004D915D916D917C91D397840E951EA61E70
:10163000B71EF70180AA91AAA2AAB3AA9E012F5FA2
:101640003F4F390120E4D3011D922A95E9F7D801D3
:101650009301B801605C7F4FA3018D909D90AD9088
:10166000BD90FA0181929192A192B192AF01A61719
:10167000B70799F7F301DC018D909D90AD90BD9077
:10168000CD014081518162817381482559256A25A8
:101690007B254193519361937193EE15FF0559F7A3
:1016A000F601C601805C9F4FD9014D915D916D910E
:1016B0007D919D0141935193619371938E179F0783
:1016C00099F7C058DF4F0FB6F894DEBF0FBECDBFFD
:1016D000DF91CF911F910F91FF90EF90DF90CF900E
:1016E000BF90AF909F908F907F906F905F904F9042
:1016F00008952F923F924F925F926F927F928F92B6
:101700009F92AF92BF92CF92DF92EF92FF920F9390
:101710001F93CF93DF93CDB7DEB7C854D1090FB66F
:10172000F894DEBF0FBECDBF1C0123963FAF2EAF96
:10173000239725961FAF0EAF25972A013B018FE314
:101740004822552466247724DB01CA0146E0B69579
:10175000A795979587954A95D1F729968CAF9DAF18
:10176000AEAFBFAF299759014801C12CD12C7601EA
:1017700029968CAD9DADAEADBFAD2997C816D906E3
:10178000EA06FB0609F049C04114510461047104E2
:1017900051F1B60186E0660F771F8A95E1F723962F
:1017A0008EAC9FAC2397860E971EDE0111965D01CD
:1017B00080E4FD0111928A95E9F725968EAD9FADE3
:1017C0002597680F791FA201CD010E94F80D8501B0
:1017D000A7019601B501C1010E949F0AA201B501AE
:1017E000C4010E94F80DC85BDF4F0FB6F894DEBF4E
:1017F0000FBECDBFDF91CF911F910F91FF90EF9062
:10180000DF90CF90BF90AF909F908F907F906F9020
:101810005F904F903F902F9008958401A70196010B
:10182000B501C1010E949F0A9FEFC91AD90AE90AAE
:10183000F90AA0E4AA0EB11CB0E48B0E911C98CF5B
:101840002F923F924F925F926F927F928F929F92D0
:10185000AF92BF92CF92DF92EF92FF920F931F93BE
:10186000CF93DF93CDB7DEB7C054D1090FB6F8944C
:10187000DEBF0FBECDBF1B012C014A013901B801EB
:10188000A70196018501CE0101966C0180E4F60165
:1018900011928A95E9F7C6010E944A0A83019401D0
:1018A000B201A101C6010E94790BC05CDF4F0FB6E7
:1018B000F894DEBF0FBECDBFDF91CF911F910F9186
:1018C000FF90EF90DF90CF90BF90AF909F908F9060
:1018D0007F906F905F904F903F902F900895AF92C0
:1018E000BF92CF92DF92EF92FF920F931F930E94CD
:1018F000200C1F910F91FF90EF90DF90CF90BF9041
:10190000AF9008951092CD008AE08093CC00E8EC6F
:10191000F0E080818D7F808386E08093CA0088E13B
:101920008093C9000C949CF68091C80087FFFCCF7F
:101930008091CE000C949CF6CF93C82F8A3019F476
:101940008DE00E949C0C8091C80085FFFCCFC09365
:10195000CE00CF910C949CF6CF93DF93EC0189914C
:10196000811104C0DF91CF910C949CF60E949C0CD5
:10197000F6CF9C0133954FEFFC014193CF01E21765
:10198000F307D1F70C949CF6CF93DF93CDB7DEB776
:10199000C250D1400FB6F894DEBF0FBECDBF0E943B
:1019A000820C84B1806684B98E010F5F1F4FCE0117
:1019B0008F5F9E4FCF5FDE4F99838883C150D140A8
:1019C0001E0192E2290E311C2E01E1E24E0E511C45
:1019D000C8010E94B90C0E94940C89830E94940C47
:1019E0008A83E82EF12CFE2CEE248981E82A0E94BD
:1019F000940C8B830E94940C8C830E94940C8D8396
:101A00000E94940C8E83A82EB12CBA2CAA248D810E
:101A1000A82A4E01F8E08F0E911CC12CD12CCA14BB
:101A2000DB0409F04FC093E0C90ED11C5601AA0C8B
:101A3000BB1C48018A0C9B1C20E2C22ED12C0E94A8
:101A4000940CF40181934F01F1E0CF1AD108B9F75A
:101A500080E2A80EB11CA50160E070E0C8010E9400
:101A6000A5F060E07FEEC8010E944FF08FE60E9473
:101A70009C0C8F2C9924612C712C6814790491F1A1
:101A800058010E94940CF50181935F01CF5FDE4FF6
:101A900088819981C150D1408E179F0791F740E00E
:101AA00051E060E070E0C8010E94A5F0B601C801F5
:101AB0000E944FF08FE60E949C0C9FEF691A790AF2
:101AC000D394DBCF0E94940CF401319780830E9461
:101AD000940CF4018083FFEFCF1ADF0A82E0880EB6
:101AE000911C9DCF6701DD24C114D104E9F0C80128
:101AF0000E94B90C58010E94940CF50181935F017A
:101B0000CF01801B910B8C159D05A8F3A60160E009
:101B100070E0C8010E94A5F060E0762DC8010E9427
:101B20004FF08FE60E949C0CC8010E94B90C68011E
:101B300058010E94940CF50181935F012E163F0617
:101B4000C1F784E60E949C0CB701C8010E94D8F539
:101B5000F60181916F010E949C0CC414D504C1F759
:101B600037CF692796276927782787277827089509
:101B70000F93083090F0982F872F762F652F542FD2
:101B8000432F322F22270850F4CF220F331F441F38
:101B9000551F661F771F881F991F0A95B2F70F916F
:101BA000089597FB10F8169400080F93083098F0EA
:101BB0000850232F342F452F562F672F782F892F2A
:101BC000902DF4CF059497958795779567955795C0
:101BD0004795379527950A95AAF70F9108952A0DED
:101BE0003B1D4C1D5D1D6E1D7F1D801F911F0895A7
:101BF000FB01DC0102C001900D9241505040D8F72A
:101C00000895DC0101C06D9341505040E0F7089504
:101C1000CF93DF93CDB7DEB7AE01475F5F4F6F81E4
:101C200078858D819E810E94180EDF91CF91089555
:101C30002F923F924F925F926F927F928F929F92DC
:101C4000AF92BF92CF92DF92EF92FF920F931F93CA
:101C5000CF93DF93CDB7DEB72B970FB6F894DEBFE7
:101C60000FBECDBF7C013B018A01FC0117821682A9
:101C7000838181FFEFC1CE0101965C01F701938161
:101C8000F30193FD859193FF81913F01882309F42E
:101C90002FC1853239F493FD859193FF81913F01E6
:101CA000853229F4B70190E00E944310E7CF912CD0
:101CB000212C312CFFE1F31538F08B32D9F090F460
:101CC0008032D9F0833249F137FC41C020ED280F32
:101CD0002A3070F536FE24C08AE0989E200D11242B
:101CE000922E0EC08D32A9F0803371F7232D216022
:101CF000322E06C0832D8260382EE32DE4603E2E06
:101D0000F30193FD859193FF81913F018111D2CF22
:101D10001EC0F32DF8603F2EF3CF232D2061E8CFB6
:101D2000EAE02E9E200D1124222EF32DF062F3CF37
:101D30008E3229F436FCDCC0232D2064D9CF8C36BA
:101D400021F4832D8068382EDBCF8836C9F2982F96
:101D50009F7D95549330D8F08336C9F18337E9F1EC
:101D6000833509F068C0280122E0420E511CF801B9
:101D7000C080D18036FE45C0692D70E0C6010E944A
:101D80002D104C01F32DF0683F2E82010BC00C5F2B
:101D90001F4F9FE3998388248394912C6501F32D31
:101DA000FF773F2E33FC05C0822D90E08816990600
:101DB00058F1522C8114910471F5552009F45ECF2D
:101DC000B70180E290E00E9443105A94F6CFF801E8
:101DD000808189830E5F1F4FDECF2801F2E04F0E16
:101DE000511CF801C080D18036FE08C0692D70E01A
:101DF000C6010E9438104C018201D1CF6FEF7FEFF6
:101E0000F7CF6FEF7FEFBACFB70180E290E00E948B
:101E100043102A94C9CFF60137FC859137FE819192
:101E20006F01B70190E00E94431051105A9421E0D5
:101E3000821A9108BFCF843611F08936C1F5F801B6
:101E400037FE2CC060817181828193810C5F1F4FAE
:101E5000F32DFF763F2E97FF09C0909580957095E2
:101E600061957F4F8F4F9F4FF0683F2E2AE030E003
:101E7000A5010E947310C82ECA1836FE77C0232D04
:101E80002E7F422EC91408F0B0C034FE05C032FCCB
:101E900003C0832D8E7E482E892C6AC0608171819B
:101EA000072E000C880B990B0E5F1F4FD1CF853783
:101EB000B9F4232D2F7ED22E2AE030E0F801D7FE90
:101EC0004EC060817181828193810C5F1F4FA5019B
:101ED0000E947310C82ECA18FD2DFF773F2ECDCF5C
:101EE000932D997FD92E8F36B9F1F0F4883561F1B1
:101EF000F701868197812B960FB6F894DEBF0FBE4F
:101F0000CDBFDF91CF911F910F91FF90EF90DF90A8
:101F1000CF90BF90AF909F908F907F906F905F9089
:101F20004F903F902F900895803751F0883701F7F8
:101F3000D4FE03C0FD2DF460DF2E20E130E0BECFE3
:101F4000E92FE061DE2EF4CF34FE03C0292F266096
:101F5000D22E20E132E0B2CF28E030E0AFCF608176
:101F6000718180E090E00E5F1F4FB1CF8C2C432C2D
:101F700044FE44C0FE01EC0DF11D80818033B9F5B3
:101F8000942D997E492EE42DE8705E2E43FC44C0CA
:101F900040FE3EC0821408F044C02C0C922C9818CD
:101FA00044FE44C0B70180E390E00E94431042FE2B
:101FB00007C041FC38C088E790E0B7010E94431099
:101FC000C91408F440C0CA94D12CFFEFCF1ADF0A1D
:101FD000CA0CDB1CF60182916F01B70190E00E94F0
:101FE0004310AC14BD04B1F7E8CE8C2CC1CF42FC39
:101FF00002C08394C8CF83948394C5CF842D867800
:1020000011F2F7CFB70180E290E00E944310839471
:102010008214C0F3512CC4CF8214E0F7522C58180C
:10202000BFCF9C2CBDCF88E590E0C7CF842D8678AC
:1020300039F241FE06C08BE247FC8DE2B70190E029
:10204000BDCF80E2F9CFB70180E390E00E9443105A
:102050009A94B6CF8FEF9FEF4ECFFC010590615061
:1020600070400110D8F7809590958E0F9F1F0895AE
:10207000FC016150704001900110D8F78095909557
:102080008E0F9F1F08950F931F93CF93DF93182FE9
:10209000092FEB018B8181FD09C01FEF0FEF812F0D
:1020A000902FDF91CF911F910F91089582FF14C05F
:1020B0002E813F818C819D81281739073CF4E8816E
:1020C000F981CF0101969983888310838E819F8146
:1020D00001969F838E83E3CFE885F985812F09954B
:1020E000892BA1F3DACFFA01AA27283051F1203148
:1020F00081F1E8946F936E7F6E5F7F4F8F4F9F4F9C
:10210000AF4FB1E03ED0B4E03CD0670F781F891FDD
:102110009A1FA11D680F791F8A1F911DA11D6A0FAB
:10212000711D811D911DA11D20D009F468943F915E
:102130002AE0269F11243019305D3193DEF6CF015D
:102140000895462F4770405D4193B3E00FD0C9F723
:10215000F6CF462F4F70405D4A3318F0495D31FD90
:102160004052419302D0A9F7EACFB4E0A6959795E3
:10217000879577956795BA95C9F7009761057105B9
:1021800008959B01AC010A2E069457954795379503
:102190002795BA95C9F7620F731F841F951FA01D5D
:1021A0000895F894FFCF016E26886E4E0707E1B3BD
:1021B0000F24160E99B912E461C424B30F24160E2D
:1021C00099B912E461C42467E6096A85AE67BB72F7
:1021D000F36E3C3AF54FA57F520E518C68059BABD0
:1021E000D9831F19CDE05B67E6096A85AE67BB72CC
:1021F000F36E3C3AF54FA57F520E518C68059BABB0
:10220000D9831F19CDE05B982F8A4291443771CF53
:10221000FBC0B5A5DBB5E95BC25639F111F159A494
:10222000823F92D55E1CAB98AA07D8015B8312BE91
:10223000853124C37D0C55745DBE72FEB1DE80A76E
:1022400006DC9B74F19BC1C1699BE48647BEEFC667
:102250009DC10FCCA10C246F2CE92DAA84744ADCFB
:10226000A9B05CDA88F97652513E986DC631A8C89B
:102270002703B0C77F59BFF30BE0C64791A7D551DD
:1022800063CA0667292914850AB72738211B2EFC43
:102290006D2C4D130D385354730A65BB0A6A762EA4
:1022A000C9C281852C7292A1E8BFA24B661AA870A0
:1022B0008B4BC2A3516CC719E892D1240699D685DD
:1022C000350EF470A06A1016C1A419086C371E4CA4
:1022D000774827B5BCB034B30C1C394AAAD84E4F46
:1022E000CA9C5BF36F2E68EE828F746F63A57814BF
:1022F00078C8840802C78CFAFFBE90EB6C50A4F734
:10230000A3F9BEF27871C667E6096A85AE67BB724B
:10231000F36E3C3AF54FA57F520E518C68059BAB8E
:10232000D9831F19CDE05B67E6096A85AE67BB728A
:10233000F36E3C3AF54FA57F520E518C68059BAB6E
:10234000D9831F19CDE05B657870616E64203332EC
:102350002D62797465206B2E2E2F2E2E2F636F72B7
:10236000652F63727970746F2F6861636C2F486199
:10237000636C5F484153482E63004B72654D4C6956
:102380006E20696E636F6D706C657465206D61742D
:1023900063682061742025733A25640A002E2E2F6D
:1023A0002E2E2F636F72652F63727970746F2F6892
:1023B00061636C2F4861636C5F537065632E6300CB
:10EF0000C023A6210C00930C9B0CAB0CB50CC30CBE
:10EF1000300D350D550D590D8B0D900DA70DB4B756
:10EF2000891A421081FE3EE75A3F38E6444FA71F38
:0EEF3000327E74C4A449D8B053EB55C5072BEC
:020000040001F9
:10E00000CF92DF92EF92FF921F93CF93DF9323E0A3
:10E01000FA0160935B0020935700E89507B600FC77
:10E02000FDCFDC01B3956A017B0131E0FC01208169
:10E03000EC0122961181822F90E0912B0C01F601C8
:10E04000E0925B0030935700E8951124F2E0CF0E88
:10E05000D11CE11CF11CCE01CA17DB0739F785E0A2
:10E06000FA0160935B0080935700E89507B600FCC7
:10E07000FDCF81E180935700E895DF91CF911F910B
:10E08000FF90EF90DF90CF900895262FFA01DC01EA
:10E090002BBF222707900D922395E1F70895CF9388
:10E0A000CFB7F894611520EF720740F4AB0160E040
:10E0B00070E050516F4F7F4F0E9400F0CFBF7894B7
:10E0C000CF91089521E02BBFE2E0FFED279136913B
:10E0D000369527958217930770F02CE93EEEF901EB
:10E0E000479156918417950771F02E5F3F4F452B4E
:10E0F000B1F780E00895E4E0FFED2791369146E026
:10E100005FED211102C081E00895FA0167917691D7
:10E110008617970771F34E5F5F4F2150F2CFFB01D7
:10E12000DC0121E02BBF20E207900D922A95E1F758
:10E130000895FC0170E04FEF9F01281B390B261753
:10E14000370708F008954193F7CF2F923F924F92EF
:10E150005F927F928F929F92AF92BF92CF92DF9207
:10E16000EF92FF920F931F93CF93DF93CDB7DEB75C
:10E17000AC970FB6F894DEBF0FBECDBF4C011A01AD
:10E180002B017FB6F894E0E3FEEEDE01919681E08C
:10E190008BBF8CE007900D928A95E1F76CE77EEEDD
:10E1A000CE0101960E948FF0A12CB12C6501CE0109
:10E1B00081967C018E010F5F1F4F9401A401C20163
:10E1C000B1010E94200C6CE0C7010E9499F060E24E
:10E1D000C8010E9499F07FBE7894AC960FB6F8946F
:10E1E000DEBF0FBECDBFDF91CF911F910F91FF908A
:10E1F000EF90DF90CF90BF90AF909F908F907F90E7
:10E200005F904F903F902F9008952F923F924F92A2
:10E210005F926F927F928F929F92AF92BF92CF92B6
:10E22000DF92EF92FF920F931F93CF93DF93CDB7BF
:10E23000DEB7C450D2400FB6F894DEBF0FBECDBFDC
:10E24000CD5FDD4F99838883C350D2402A013B01C3
:10E2500019016CE77EEECE018F519E4F0E948FF028
:10E260007E018FE7E81A8EEFF80A80E4D7011D924D
:10E270008A95E9F780E2FE01EF51FE4FD701019048
:10E280000D928A95E1F74E01BFEB8B1ABEEF9B0A08
:10E2900040E450E066E370E0C4010E94010EF40126
:10E2A0006701D7019D91808189278193EE15FF0534
:10E2B000C9F740E450E06CE570E0CE018F5F9E4FFF
:10E2C0000E94010EFE01EF5FFE4FD6019D916D0190
:10E2D000808189278193E815F905B9F780E2E1E2A9
:10E2E000F1E0DE01AF53BE4F01900D928A95E1F748
:10E2F000CE018F539E4F0E94650021E030E040E048
:10E3000050E0B401CE018F539E4F0E943C04FE01A9
:10E3100031967F01013009F442C0023009F048C053
:10E32000810163015201CF5FDD4FE883C150D240CC
:10E33000CE5FDD4FF882C250D2400F3F110511F081
:10E3400008F0A4C0432D5527A22CB12C60E070E04A
:10E35000762F652F542F4427440D551D661D771DBC
:10E36000C7010E9445F040E05FED61E070E0C70149
:10E370008A0D9B1D0E9445F093E0A90EB11CC12C93
:10E38000D12C00E410E020E030E040E050E060E01C
:10E3900070E0CE018F539E4F0E94280509C05101A5
:10E3A000C12CD12C4A145B046C047D0408F45AC0BF
:10E3B000B401CE018F539E4F0E945B06CE018F5356
:10E3C0009E4F0E94650021E030E040E050E0BE0139
:10E3D0006F5F7E4FCE018F539E4F0E943C0480E2C0
:10E3E000A82EB12CC12CD12C740100E410E020E047
:10E3F00030E040E050E060E070E0CE018F539E4F8F
:10E400000E942805CD5FDD4F68817981C350D240DD
:10E41000CE018F539E4F0E945B0660E0CE010196B5
:10E420000E9499F060E2CE018F519E4F0E9499F0B8
:10E43000CC5FDD4F0FB6F894DEBF0FBECDBFDF91CE
:10E44000CF911F910F91FF90EF90DF90CF90BF90F1
:10E45000AF909F908F907F906F905F904F903F9084
:10E460002F900895B301A201C7010E9445F024E056
:10E4700030E040E050E0B701CE018F539E4F0E9444
:10E480003C04FFEF5F1A6F0A7F0A8CCFB601A5012B
:10E49000CF5FDD4F8881C150D240CE5FDD4F988184
:10E4A000C250D2400E9445F024E030E040E050E00D
:10E4B000CF5FDD4F6881C150D240CE5FDD4F7881A4
:10E4C000C250D240CE018F539E4F0E943C041A95F9
:10E4D0008FEFB81AC80AD80A30CFBF92CF92DF9216
:10E4E000EF92FF920F931F93CF93DF93CDB7DEB7D9
:10E4F000C052D1400FB6F894DEBF0FBECDBF6C0145
:10E5000081E08BBFE0E0FFEDE790F690E4E0FFED07
:10E510008791969193E0B92EB80E02E010E0970132
:10E5200040E050EF60E070E0CE0101960E9405F1FE
:10E530008B2D880FB701680F711D81E090E08C0F63
:10E540009D1F680F791F40E250E093950E9402F7EB
:10E5500040E250E0BE016F5F7E4FCE0101960E9407
:10E560000BF7892BD1F440E250E0BE016F5F7E4F84
:10E57000C6010E9402F781E0C05EDE4F0FB6F8943C
:10E58000DEBF0FBECDBFDF91CF911F910F91FF90E6
:10E59000EF90DF90CF90BF90089580E0EDCF2F9265
:10E5A0003F924F925F926F927F928F929F92AF9223
:10E5B000BF92CF92DF92EF92FF920F931F93CF9370
:10E5C000DF93CDB7DEB7C052D1400FB6F894DEBFAF
:10E5D0000FBECDBF5C014B013FB6411114C083E0BB
:10E5E000A814B90408F47CC040E05FED61E070E07D
:10E5F00083E0FA0160935B0080935700E89507B6CB
:10E6000000FCFDCF0DC093E0292E390181E2680E98
:10E61000711C290191E4490E511CA814B904E0F0C1
:10E620003FBE7894C05EDE4F0FB6F894DEBF0FBEDB
:10E63000CDBFDF91CF911F910F91FF90EF90DF90B1
:10E64000CF90BF90AF909F908F907F906F905F9092
:10E650004F903F902F900895C501A0E0B0E0FC01DD
:10E66000A0935B0020925700E89507B600FCFDCF11
:10E67000B3946CE57EEECE018F5F9E4F0E948FF0CB
:10E68000F301AE014E5D5F4F2191CA018097DC011D
:10E690002C93CF018197DC018C91DA018D93AD0130
:10E6A000E415F50589F781E4C82ED12CE12CF12C75
:10E6B0008E010F5F1F4F20E230E040E050E0BE01CE
:10E6C0006F5F7E4FC3010E94A20760E2CE018F5FA1
:10E6D0009E4F0E9499F060E0C8010E9499F09DCF82
:10E6E000A50160E070E0FA0160935B008093570041
:10E6F000E89507B600FCFDCFB39472CF5F926F929E
:10E700007F928F929F92AF92BF92CF92DF92EF92C1
:10E71000FF920F931F93CF93DF93CDB7DEB7DA95B8
:10E720000FB6F894DEBF0FBECDBF4C0181E08BBFAA
:10E73000E2E0FFEDA790B690B694A794712C612CFF
:10E74000C12C50EFD52EE12CF12C55245394AE144E
:10E75000BF0409F03DC0C4010E946DF2882309F492
:10E7600043C081E08BBFE0E0FFED8791969101E02F
:10E7700010E0811102C000E010E0892F9927080FF6
:10E78000191FC12CD12CE12CF12C0E151F0509F0FD
:10E790006CC040E05FED61E070E0CE0101960E9448
:10E7A00045F040E05FEE60E070E0CE0101960E942F
:10E7B00000F08E010F5F1F4F20E030E040E05FED82
:10E7C00061E070E080E090EF0E94CFF281E00DC048
:10E7D0006BBEF60107911691772009F475C0C80148
:10E7E0000E9462F0811158C080E0D3950FB6F89472
:10E7F000DEBF0FBECDBFDF91CF911F910F91FF9074
:10E80000EF90DF90CF90BF90AF909F908F907F90D0
:10E810006F905F900895C8018827987F8115904F69
:10E82000B1F433E0169507953A95E1F70F77112784
:10E830000034110510F000681F6FC7010196800FAA
:10E84000911F0E9462F0882309F45FC066C0C8016E
:10E850008827907E8115904C09F05FC01F700115CC
:10E8600088E0180750F3106FE8CF4601A12CB12CB7
:10E87000B501A40150516F4F7F4FCE0101960E9408
:10E8800045F0B501A401CE0101960E9400F02FEFE2
:10E89000E21AF20AD39479CF0C3024E9120709F076
:10E8A0003EC0C7010E9462F081119ECF75242FEFF8
:10E8B000E21AF20A82E0C80ED11CC114D10409F098
:10E8C00046CF6624639443CF0C3084E9180771F374
:10E8D0000E3024E9120751F3C80188509549029778
:10E8E000A0F0083125E9120781F0093084E9180702
:10E8F00061F0083D25E9120741F0C8018F709E7F45
:10E9000086509049029708F086CF772009F46CCFA3
:10E91000C7010E9462F0811167CF712CC8CF0E3001
:10E9200084E91807C9F6BDCF4F925F926F927F922C
:10E930008F929F92AF92BF92CF92DF92EF92FF920F
:10E940000F931F93CF93DF93CDB7DEB7C556D1405A
:10E950000FB6F894DEBF0FBECDBF4C015FB6F89482
:10E96000F40141905F016CE57EEECE018C5B9E4F21
:10E970000E948FF040E2C42ED12CE12CF12C8501B5
:10E9800020E230E040E050E0BE016C5B7E4FCE0103
:10E990008C5D9E4F0E94A2073E01FBE96F1AFEEFBD
:10E9A0007F0A842D90E094012F5D3F4F7901681616
:10E9B000790608F0DBC040E250E0B901CE018C5D81
:10E9C0009E4F0E940BF7892B09F0D0C001E020E098
:10E9D00038E240E050E0BA01C7010E9405F161E071
:10E9E00071E0CE018C5D9E4F0E948FF040E250E0BE
:10E9F000B701CE018C5D9E4F0E940BF7F301208181
:10EA0000892B09F081C081E0CF5FDE4F8883C15040
:10EA1000D140CC59DE4F8881C456D140CE5FDE4F05
:10EA20008883C250D140CD5FDE4F2883C350D14090
:10EA3000F501A1E0B1E0AC0FBD1F139681918D935C
:10EA4000EE16FF06D9F723E2C22ED12CE12CF12CD1
:10EA50008E010F5F1E4F20E230E040E050E0BE012B
:10EA60006C5B7E4FC40102960E94A20781E0F40114
:10EA70008083CC59DE4F8881C456D14081833AE1EE
:10EA8000832E33E0932E092C000CAA08BB08B50195
:10EA9000A401CE0101960E9445F04982B501A4016E
:10EAA000CE0101960E9400F060E2CE018C5B9E4F89
:10EAB0000E9499F060E2CE018C5D9E4F0E9499F019
:10EAC00061E0C3010E9499F061E0CE018C599E4F34
:10EAD0000E9499F05FBE7894CB59DE4F0FB6F89440
:10EAE000DEBF0FBECDBFDF91CF911F910F91FF9081
:10EAF000EF90DF90CF90BF90AF909F908F907F90DE
:10EB00006F905F904F90089519822A83F501DE017E
:10EB1000139681918D93EE15FF05D9F7C4018F5B94
:10EB20009F4FDF0190972C912193E817F907C9F7C0
:10EB300092E2C92ED12CE12CF12C8E010F5F1F4FD8
:10EB400020E230E040E050E0BE016C5B7E4FC5014A
:10EB50000E94A207F4011082940141E050E060E0BD
:10EB600078E280E090E00E94CFF29ECF1982F3011C
:10EB700080818A83F501DE01139681918D93EE15D4
:10EB8000FF05D9F782E2C82ED12CE12CF12C8E01A1
:10EB90000F5F1F4F20E230E040E050E0BE016C5BB1
:10EBA0007E4FC5010E94A20782E0F40180837CCFE2
:10EBB000CF93DF93CDB7DEB7C152D1400FB6F894F3
:10EBC000DEBF0FBECDBF5C013B019FB6F8946CE386
:10EBD0007EEECE018F5F9E4F0E948FF02E018FED53
:10EBE000481A8EEF580AC12CD12C7601C3948201A9
:10EBF00020E230E040E050E0BE016F5F7E4FCE018A
:10EC000001960E94A207F501808190E08415950588
:10EC100080F040E250E0B5016F5F7F4FCE0101967A
:10EC20000E940BF7892B29F4C5010E947EF3811104
:10EC300018C0B3017051950140E050E080E090EFC2
:10EC40000E94CFF260E2CE018F5F9E4F0E9499F04A
:10EC500060E0CE0101960E9499F09FBE78940C94DA
:10EC6000000090E0C92E91E0D92E0D2C000CEE088A
:10EC7000FF08B701A601CE0101960E9445F08981E7
:10EC80008F5F8983B701A601CE0101960E9400F033
:10EC900021E0C22E21E0D22E0D2C000CEE08FF0840
:10ECA000B701A601CE0101960E9445F0F501DE01F3
:10ECB0001196C501809621912D93E817F907D9F790
:10ECC000B701A601CE0101960E9400F061E071E05B
:10ECD000CE0102960E948FF081E2C82ED12CE12C49
:10ECE000F12C8E010F5F1F4F20E230E040E050E03A
:10ECF000BE016F5F7E4FC5010E94A207A3CF2F9375
:10ED00002FB7F8942F932BB72F933F934F938F9355
:10ED10009F93EF93FF93CF014FD0882361F0FF9132
:10ED2000EF919F918F914F913F912F912BBF2F91F9
:10ED30002FBF2F910994FFCF2F932FB7F8942F93C4
:10ED40002BB72F933F934F938F939F93EF93FF9303
:10ED5000EDB7FEB73A96919180812ED0882359F372
:10ED6000FF91EF919F918F914F913F912F912BBFE9
:10ED70002F912FBF2F9108952F932FB7F8942F9392
:10ED80002BB72F933F934F938F939F93EF93FF93C3
:10ED9000EDB7FEB73A96919180810ED0882359F253
:10EDA000FF91EF919F918F914F913F912F912BBFA9
:10EDB0002F912FBF2F911895E2E0FFEE259134910E
:10EDC000369527958217930778F0ECE9FEEE21E05F
:10EDD0002BBF279137918217930711F481E0089593
:10EDE000232BB9F780E00895E4E0FFEE4491E6E0DC
:10EDF000FFEE442399F3259135918217930791F300
:10EE00004150F7CFFB01DC0102C001900D9241504F
:10EE10005040D8F70895FB01DC0104C08D910190AA
:10EE2000801921F441505040C8F7881B990B089570
:10EE30001688266E4E0707E1B30F24E66E26886E0D
:10EE40004E0707E1B30F24160E99B912E461C424EA
:10EE5000B30F24160E99B912E461C4246E26886E8D
:10EE60004E0707E1B30F24160E99B912E461C424CA
:10EE7000B30F24160E99B912E461C4246E26886E6D
:10EE80004E0707E1B30F24160E99B912E461C424AA
:10EE9000B30F24160E99B912E461C4247FF69CF6D0
:0CEEA000BCF64FF0A5F094F4D8F500008B
:00000001FF
