:020000040000FA
:100000000C9446000C945B000C945B000C945B0019
:100010000C945B000C945B000C945B000C945B00F4
:100020000C945B000C945B000C945B000C945B00E4
:100030000C945B000C945B000C945B000C945B00D4
:100040000C945B000C945B000C945B000C945B00C4
:100050000C945B000C945B000C945B000C945B00B4
:100060000C945B000C945B000C945B000C945B00A4
:100070000C945B000C945B000C945B000C945B0094
:100080000C945B000C945B000C945B0011241FBE6D
:10009000CFEFD0E4DEBFCDBF11E0A0E0B1E0E4E8F7
:1000A000F1E002C005900D92A030B107D9F70E948F
:1000B00094000C94C0000C9400001092CD008AE0D3
:1000C0008093CC00E8ECF0E080818D7F808386E037
:1000D0008093CA0088E18093C9000C94F7FA80915C
:1000E000C80087FFFCCF8091CE000C94F7FACF9325
:1000F000C82F8A3019F48DE00E9477008091C800E3
:1001000085FFFCCFC093CE00CF910C94F7FACF932C
:10011000DF93EC018991811104C0DF91CF910C94A0
:10012000F7FA0E947700F6CFCDB7DEB764970FB627
:10013000F894DEBF0FBECDBF0E945D0084B1806623
:1001400084B96E0185E1C80ED11C8E010F5F1F4F6F
:1001500078010E946F00F70181937F01EC15FD0586
:10016000C1F78FE60E947700C8010E9493F8F8015A
:1001700081918F010E9477000C151D05C1F7E5CF15
:04018000F894FFCF21
:10F70000840184010000713008B80E458B778D2389
:0AF71000138873C9EAB0D242AE16A6
:020000040001F9
:10F000009C0181E08BBFE2E0FFEE8791969196959F
:10F0100087952817390768F084EF9BEFFC0147912B
:10F0200056912417350769F00296452BB9F780E011
:10F030000895E4E0FFEE8791969146E05FEE81113E
:10F0400002C081E00895FA0167917691261737078B
:10F0500071F34E5F5F4F8150F2CFFF920F931F937A
:10F06000CF93DF938A019B0143E0F80120935B007B
:10F0700040935700E89507B600FCFDCFDC01EC019A
:10F08000D395B901A801FF24F3948C9111969C911A
:10F0900011970C01FA0160935B00F0925700E8951C
:10F0A00011244E5F5F4F6F4F7F4F1296CA17DB07D9
:10F0B00061F785E0F80120935B0080935700E895A5
:10F0C00007B600FCFDCF81E180935700E895DF9102
:10F0D000CF911F910F91FF900895E0EEFBEFDC01BF
:10F0E00081E08BBF84E107900D928A95E1F7089546
:10F0F000262FFA01DC012BBF222707900D922395C2
:10F10000E1F70895CF93AB01CFB7F8946115784F2D
:10F1100038F470E060E058506F4F7F4F0E942DF838
:10F12000CFBFCF910895BF92CF92DF92EF92FF921F
:10F130000F931F93CF93DF93CDB7DEB7C853D14062
:10F140000FB6F894DEBF0FBECDBF8C01BFB6F894EA
:10F15000CE0101960E946DF840EA50E0BE016F5F5B
:10F160007F4FCE018F5F9E4F0E9420FDC12CD12C7E
:10F170007601B701A601CE0101960E9478F8BE0182
:10F180006F5F7F4FCE018F5F9E4F0E9481FDBE015A
:10F190006F5B7F4FCE018F5F9E4F0E9481FDBE014E
:10F1A0006F577F4FCE018F5F9E4F0E9481FDBE0142
:10F1B0006F537F4FCE018F5F9E4F0E9481FD8FEF77
:10F1C000D81AE80AF80AC114D10482E0E806F1046A
:10F1D00081F640EA50E0B801CE018F5F9E4F0E9459
:10F1E00083FDBE016F5F7E4FC8010E94C3FDBFBE9D
:10F1F000C85CDE4F0FB6F894DEBF0FBECDBFDF9107
:10F20000CF911F910F91FF90EF90DF90CF90BF9023
:10F2100008958F929F92AF92BF92CF92DF92EF921A
:10F22000FF921F93CF93DF93CDB7DEB7CC54D2407C
:10F230000FB6F894DEBF0FBECDBF81E08BBFE0E01C
:10F24000FFEEE790F690E4E0FFEE6791769113E031
:10F25000160F110FCE0101960E946DF840EA50E0A2
:10F26000BE016F5F7F4FCE018F5F9D4F0E9420FDDB
:10F270006701812C38EF932EA12CB12C8FEFC8168B
:10F28000D10411F008F06AC04F2D552780E0849F0B
:10F29000B001859F700D741B1124E60EF71E70E0FF
:10F2A00060E048505F4F6F4F7F4F762F652F542F90
:10F2B0004427CE0101960E9478F840E05FEE61E0BD
:10F2C00070E081E090E08C0F9D1F8E0D9F1D0E94CD
:10F2D00078F8E10EF11CA70123E0440F551F2A9591
:10F2E000E1F7BE016F5F7F4FCE018F5F9D4F0E94A0
:10F2F00083FD61E070E06C0F7D1F6E0D7F1D44E1AA
:10F3000050E0CE01875C9D4F0E94DAFDBE016F5F29
:10F310007D4FCE0101960E94C3FD44E150E0BE0145
:10F32000675C7D4FCE0101960E94E3FD9C0181E068
:10F33000232B09F080E0C45BDD4F0FB6F894DEBFED
:10F340000FBECDBFDF91CF911F91FF90EF90DF9067
:10F35000CF90BF90AF909F908F900895B501A4017A
:10F36000CE0101960E9478F8BE016F5F7F4FCE01FB
:10F370008F5F9D4F0E9481FDBE016F5B7F4FCE016D
:10F380008F5F9D4F0E9481FDBE016F577F4FCE0161
:10F390008F5F9D4F0E9481FDBE016F537F4FCE0155
:10F3A0008F5F9D4F0E9481FDDA948FEF981AA80A13
:10F3B000B80A64CF4F925F926F927F928F929F9222
:10F3C000AF92BF92CF92DF92EF92FF920F931F9373
:10F3D000CF93DF93CDB7DEB7DA950FB6F894DEBFE3
:10F3E0000FBECDBFCFB6F89481E08BBFE2E0FFEE59
:10F3F0008790969096948794D12C712CA12C58EFDD
:10F40000B52EF12CE12C662463948E149F0481F5B3
:10F410000E9409F9882309F437C081E08BBFE0E03E
:10F42000FFEE8791969101E010E0811102C010E09B
:10F4300000E0892F9927080F191FB12CA12CF12C5E
:10F44000E12C0E151F0509F060C040E05FEE61E0A1
:10F4500070E0CE0101960E9478F840E057EF60E03E
:10F4600070E0CE0101960E942DF8CFBE0C940000F2
:10F470007BBEF50107911691C801DD2009F473C028
:10F480000E9400F8811157C080E0D3950FB6F89420
:10F49000DEBF0FBECDBFDF91CF911F910F91FF90C7
:10F4A000EF90DF90CF90BF90AF909F908F907F9024
:10F4B0006F905F904F900895C8018827987F8115BD
:10F4C000904FB1F433E0169507953A95E1F7C801EE
:10F4D0008F77992706FF02C080689F6F97012F5F83
:10F4E0003F4F820F931F0E9400F8811161C058C0E6
:10F4F000C8018827907E8115904C09F059C0C80139
:10F500009F7013FFEBCF906FE9CF712C612CB3018B
:10F51000A50158506F4F7F4FCE0101960E9478F899
:10F52000B301A501CE0101960E942DF88FEFE81AD4
:10F53000F80AB39486CFC8018D7F8C309449B9F412
:10F54000C7010E9400F881119FCFD6248FEFE81ADF
:10F55000F80A22E0A20EB11CA114B10409F055CFA3
:10F560007724739452CF8D7F8C30944971F3C80106
:10F57000885095490297A0F0083125E9120781F0DB
:10F58000093084E9180761F0083D25E9120741F0C8
:10F59000C8018F709E7F86509049029708F08CCFEB
:10F5A000DD2009F471CFC7010E9400F881116CCFF2
:10F5B000D12CCCCF2F932FB7F8942F932BB72F9319
:10F5C0003F934F938F939F93EF93FF93CF014FD030
:10F5D000882361F0FF91EF919F918F914F913F911F
:10F5E0002F912BBF2F912FBF2F910994FFCF2F93D6
:10F5F0002FB7F8942F932BB72F933F934F938F935D
:10F600009F93EF93FF93EDB7FEB73A969191808168
:10F610002ED0882359F3FF91EF919F918F914F91B5
:10F620003F912F912BBF2F912FBF2F9108952F9393
:10F630002FB7F8942F932BB72F933F934F938F931C
:10F640009F93EF93FF93EDB7FEB73A969191808128
:10F650000ED0882359F2FF91EF919F918F914F9196
:10F660003F912F912BBF2F912FBF2F911895E2E043
:10F67000F7EF25913491369527958217930778F007
:10F68000E4EFFBEF21E02BBF27913791821793071F
:10F6900011F481E00895232BB9F780E00895E4E0A8
:10F6A000F7EF4491E6E0F7EF442399F32591359184
:10F6B0008217930791F34150F7CFDB01FC0155E02E
:10F6C000149744E018960E9001924A95E1F75A95E6
:10F6D000C1F70895523090F09F938F937F936F936B
:10F6E0005F934F9377D04F915F916F917F918F91FF
:10F6F0009F91525030E4630F711DECCFEDB7FEB710
:10F700000FB6E054F040F894EDBF0FBEFEBF319647
:10F71000242F26952695269550FB25F9DB012223DB
:10F7200029F0122E0D9001921A94E1F730E8032E81
:10F7300037E0342329F006943A95E9F73C91032AFF
:10F7400001922395293308F421C030E4321B19F0CB
:10F7500011923A95E9F7FF973197BF01FF93EF9325
:10F760009F938F935F934F9335D04F915F918F917C
:10F770009F91EF91FF91DC0155963C9132503D9362
:10F7800026E03C9130403D932A95D9F738E3321B6F
:10F7900021F0112411923A95E9F7DC01549638963C
:10F7A0000D90040E02920D90051E029236E00D900F
:10F7B000011C02923A95D9F7F897BF010BD0EDB72B
:10F7C000FEB70FB6FF963196F894EDBF0FBEFEBFA1
:10F7D00011240895AF92BF92CF92DF92EF92FF92E1
:10F7E0000F931F93CF93DF934DB75EB79A01FB0141
:10F7F00048555040DA010FB6F8944DBF0FBE5EBFBA
:10F800002F933F938F939F93C1E0CBBFEC01119651
:10F8100004E129912D930A95E1F75D01FB0100E1D7
:10F8200023812D9322812D9321812D9320812D934E
:10F8300034960A95A9F70024102F110F110F1C738D
:10F84000D501A10FB11DCD90DD90ED90FD9000315F
:10F8500014F128E005D020E203D024E301D00EC04B
:10F86000210F2F73D501A20FB11D3D91C3263D91EC
:10F87000D3263D91E3263D91F32608953F2D331F76
:10F88000CC1CDD1CEE1CFF1CD501A10FB11DCD92BF
:10F89000DD92ED92FD92D50114972D91C20E2D911E
:10F8A000D21E2D91E21E2D91F21E54976D917D91E5
:10F8B0008D919D91292F35E0221F661F771F881F8C
:10F8C000991F3A95C9F7C60ED71EE81EF91EEAEB36
:10F8D000F9EFE00DF11D2691201709F40394EEEBEA
:10F8E000F9EF000C000CE00DF11D06940694279131
:10F8F000C20E2791D21E2791E21E2791F21EED0122
:10F900003C960894F795E7950995622F0995722F13
:10F910000995822F0995C60ED71EE81EF21EE50135
:10F92000249730E12A912C833A95E1F7E501649719
:10F93000C992D992E992F992CC80DD80EE80FF8065
:10F940002C2D32E02795F794E794D794C7943A95F5
:10F95000C9F7CC82DD82EE82FF82039500350CF47C
:10F960006BCF2497BF91AF9155E0889444E02C91E0
:10F970003991231F2D934A95D1F75A95B1F71196D6
:10F980002C9132E0230F2D9336E02C91211D2D93E5
:10F990003A95D9F75F914F910FB6F8944DBF0FBECE
:10F9A0005EBF1124DF91CF911F910F91FF90EF90D7
:10F9B000DF90CF90BF90AF90089514283C009979C4
:10F9C000825AA1EBD96EDCBC1B8FD6C162CA06C0BD
:10F9D000000017C000000BC0000013C02991322F97
:10F9E00030954B8124234F81342323270895299177
:10F9F000322F4B8124235F8135232327452324275E
:10FA0000089529913B8123273F8123270895DC0115
:10FA1000ECE2FAEF64E171E07BBF77917D936A9548
:10FA2000E1F768E01D926A95E9F7089501234567BB
:10FA300089ABCDEFFEDCBA9876543210F0E1D2C338
:10FA4000AF92BF92CF92DF92EF92FF920F931F93EC
:10FA5000CF93DF93CDB7DEB7C054D1090FB6F8947A
:10FA6000DEBF0FBECDBF8C01CE0101967C0180E4CC
:10FA7000F70111928A95E9F7495F5F4F83E0569548
:10FA800047958A95E1F7C7010E94DAFD67015E019B
:10FA9000F1E4AF0EB11CF70196E38191DF011197FC
:10FAA00089278C93EA15FB05C1F7C8010E9407FD61
:10FAB000B701C8010E94EAFB9AE6F60181916F0145
:10FAC000319789278083CA14DB04B9F7045E1F4F7E
:10FAD000C8010E9407FDB701C8010E94EAFBC05C93
:10FAE000DF4F0FB6F894DEBF0FBECDBFDF91CF91D1
:10FAF0001F910F91FF90EF90DF90CF90BF90AF904C
:10FB000008950C94EAFBAF92BF92CF92DF92EF92EE
:10FB1000FF920F931F93CF93DF937C01EB018A0138
:10FB20006A015B01C11482E0D80618F5B801672F9D
:10FB30007727669580E09EEF689FA001699F500D32
:10FB4000789F500D1124400F511F96E0660F771FCC
:10FB50009A95E1F76C0F7D1FC701DF91CF911F913F
:10FB60000F91FF90EF90DF90CF90BF90AF900C94EB
:10FB70006AFBB501C7010E94EAFB80E4A80EB11C34
:10FB800082E0D81ACFCF0F931F93CF93DF938C01CE
:10FB9000EB010E945DFB6C9640EA50E0B801CE019B
:10FBA0000E946AFBBE01C801DF91CF911F910F91A6
:10FBB0000C945DFBFB01DC0102C001900D924150F1
:10FBC0005040D8F70895FB01DC0104C08D910190ED
:10FBD000801921F441505040C8F7881B990B0895B3
:10FBE0006E26886E4E0707E1B30F24160E99B912E0
:10FBF000E461C424DAFAF7FA17FB82F8DAF993F829
:02FC0000000002
:00000001FF
