:020000040000FA
:100000000C9446000C9463000C9463000C94630001
:100010000C9463000C9463000C9463000C946300D4
:100020000C9463000C9463000C9463000C946300C4
:100030000C9463000C9463000C9463000C946300B4
:100040000C9463000C9463000C9463000C946300A4
:100050000C9463000C9463000C9463000C94630094
:100060000C9463000C9463000C9463000C94630084
:100070000C9463000C9463000C9463000C94630074
:100080000C9463000C9463000C94630011241FBE55
:10009000CFEFD0E4DEBFCDBF12E0A0E0B1E0E2E3FD
:1000A000F9E102C005900D92A83FB107D9F722E00F
:1000B000A8EFB2E001C01D92AE3FB207E1F70E9487
:1000C00060090C94970C0C940000ACE4B2E0FC01C5
:1000D00080964D915D916D917D9141935193619386
:1000E0007193E817F907A9F708952F923F924F925D
:1000F0005F926F927F928F929F92AF92BF92CF92B8
:10010000DF92EF92FF920F931F93CF93DF93CDB7C0
:10011000DEB7C254D1400FB6F894DEBF0FBECDBFDC
:10012000C55CDE4F8883CB53D140C45CDE4F9883DF
:10013000CC53D1401B0180E091E0FE013196DF01FC
:100140009C011D9221503040E1F7AE014F535109FF
:10015000C75DDE4F59834883C952D140C12CD12C91
:100160007601C75DDE4FA881B981C952D140A05C3C
:10017000BF4FCB5DDE4FB983A883C552D140B0E1FC
:10018000CB16D104E104F10408F0B6C2D601AA0FDF
:10019000BB1FAA0FBB1FA20DB31D4D905D906D90AC
:1001A0007C90CF5DDE4F488259826A827B82C15249
:1001B000D140C301B2010E948C09CB5DDE4FA88102
:1001C000B981C552D1406D937D938D939C931397C4
:1001D000FFEFCF1ADF0AEF0AFF0AC75DDE4F288163
:1001E0003981C952D1402C5F3F4FC75DDE4F398303
:1001F0002883C952D14030E4C316D104E104F1048C
:1002000009F0AFCF1E0141E0240E341E80E2C55C30
:10021000DE4FE881CB53D140C45CDE4FF881CC5334
:10022000D140D10101900D928A95E1F7D1018D90D5
:100230009D90AD90BC90139714964D905D906D90ED
:100240007C901797CB5DDE4F488259826A827B8211
:10025000C552D14018964D905D906D907C901B9743
:10026000C35DDE4F488259826A827B82CD52D14083
:100270001C964D905D906D907C901F97CB5CDE4FEF
:10028000488259826A827B82C553D1405096CD9074
:10029000DD90ED90FC90539754964D905D906D904D
:1002A0007C905797CF5DDE4F488259826A827B826D
:1002B000C152D14058964D905D906D907C905B9767
:1002C000CF5CDE4F488259826A827B82C153D14023
:1002D0005C964D905D906D907C905F97C75DDE4F12
:1002E000488259826A827B82C952D140FE0131968E
:1002F000CF5BDE4FF983E883C154D1402CE431E079
:10030000C75CDE4F39832883C953D140CF5BDE4FB2
:10031000E881F981C154D14081919191A191B1912C
:10032000CF5BDE4FF983E883C154D140B701A6010A
:100330002AE1440F551F661F771F2A95D1F79701B1
:100340008601E6E03695279517950795EA95D1F74A
:10035000402B512B622B732B97018601F5E1000F87
:10036000111F221F331FFA95D1F726013701EBE049
:100370007694679457944794EA95D1F70429152900
:10038000262937290427152726273727260137014D
:10039000F9E17694679457944794FA95D1F7B701A9
:1003A000A601E7E0440F551F661F771FEA95D1F7B6
:1003B0004429552966297729042715272627372711
:1003C000C75CDE4FE881F981C953D140419051901B
:1003D00061907190C75CDE4FF983E883C953D140C7
:1003E000840D951DA61DB71D080F191F2A1F3B1F41
:1003F000260137014094509460947094CF5CDE4F96
:10040000488159816A817B81C153D1404422552260
:1004100066227722CF5DDE4F88819981AA81BB81D8
:10042000C152D1408C219D21AE21BF21842595252B
:10043000A625B725800F911FA21FB31FC75DDE4FF2
:10044000488059806A807B80C952D140840D951DB7
:10045000A61DB71DB501A401FEE1440F551F661F7F
:10046000771FFA95D1F72401350112E0769467944D
:10047000579447941A95D1F7442A552A662A772A21
:10048000B501A40103E1440F551F661F771F0A95AC
:10049000D1F795018401EDE03695279517950795DD
:1004A000EA95D1F7402B512B622B732B442655260E
:1004B00066267726B501A401F6E1769567955795EE
:1004C0004795FA95D1F795018401EAE0000F111FD5
:1004D000221F331FEA95D1F7402B512B622B732B30
:1004E0004425552566257725CB5DDE4F088119818A
:1004F0002A813B81C552D140082519252A253B2553
:10050000C35DDE4F488059806A807B80CD52D140E8
:100510000421152126213721CB5DDE4F48805980EB
:100520006A807B80C552D140482059206A207B20B8
:100530000425152526253725040F151F261F371FCF
:10054000080F191F2A1F3B1FCB5CDE4F48815981C2
:100550006A817B81C553D140840F951FA61FB71FA9
:10056000C35DDE4F488059806A807B80CD52D14088
:10057000CB5CDE4F488259826A827B82C553D14070
:10058000CF5CDE4F488159816A817B81C153D14064
:10059000C75DDE4F488359836A837B83C952D1404C
:1005A000CF5BDE4F68817981C154D1402616370672
:1005B00009F057C1CF5FDE4F088319832A833B833D
:1005C000C150D140CB5FDE4F88829982AA82BB8224
:1005D000C550D140CB5DDE4F488059806A807B801A
:1005E000C552D140C75FDE4F488259826A827B8202
:1005F000C950D140C35DDE4F288139814A815B817A
:10060000CD52D140C35FDE4F288339834A835B8359
:10061000CD50D140CF5EDE4F88839983AA83BB83C0
:10062000C151D140CB5EDE4FC882D982EA82FB82C3
:10063000C551D140CF5DDE4F488159816A817B81B0
:10064000C152D140C75EDE4F488359836A837B83A2
:10065000C951D140CF5CDE4F688179818A819B810D
:10066000C153D140C35EDE4F688379838A839B8305
:10067000CD51D140C55CDE4FA881CB53D140C45C85
:10068000DE4FB881CC53D1408E010F5F1E4FCD019C
:1006900080964D915D916D917D91F801C190D190C1
:1006A000E190F1908F019D01245031094C0D5D1DA9
:1006B0006E1D7F1DF90140835183628373838A1706
:1006C0009B0739F7CE5BDE4F0FB6F894DEBF0FBE47
:1006D000CDBFDF91CF911F910F91FF90EF90DF90F1
:1006E000CF90BF90AF909F908F907F906F905F90D2
:1006F0004F903F902F900895C75DDE4FE881F981BC
:10070000C952D140448155816681778100AD11ADD8
:1007100022AD33AD80819181A281B38184A095A067
:10072000A6A0B7A02C013D01480C591C6A1C7B1CDB
:10073000CF5DDE4F488259826A827B82C152D140AE
:1007400048015901FFE0880C991CAA1CBB1CFA95B2
:10075000D1F7D901C801E1E1B695A795979587959D
:10076000EA95D1F7882A992AAA2ABB2AD901C80171
:10077000FDE0880F991FAA1FBB1FFA95D1F728012A
:100780003901E3E17694679457944794EA95D1F759
:1007900084299529A629B72988259925AA25BB2525
:1007A000FAE03695279517950795FA95D1F78027A2
:1007B0009127A227B327CF5DDE4F88809980AA803A
:1007C000BB80C152D140880E991EAA1EBB1E2A01B1
:1007D0003B01A7E07694679457944794AA95D1F784
:1007E000DB01CA0119E1880F991FAA1FBB1F1A95C7
:1007F000D1F7482A592A6A2A7B2ADB01CA010EE06E
:10080000880F991FAA1FBB1F0A95D1F78A019B0168
:10081000E2E13695279517950795EA95D1F7802B54
:10082000912BA22BB32B84259525A625B725F3E084
:100830007695679557954795FA95D1F7842795272B
:10084000A627B727880D991DAA1DBB1DCB5DDE4FBE
:10085000E881F981C552D14080839183A283B3831B
:10086000B7CCCF5DDE4F488159816A817B81C1520F
:10087000D140CF5CDE4F488359836A837B83C15369
:10088000D140CF5DDE4FC882D982EA82FB82C1525D
:10089000D1406C017D01CB5DDE4F688179818A8119
:1008A0009B81C552D140C35DDE4F688379838A83C3
:1008B0009B83CD52D140CB5DDE4F88829982AA8244
:1008C000BB82C552D1404801590120CDCF92DF9261
:1008D000EF92FF920F931F93CF93DF93D82EC92EE1
:1008E0008B01E901F12CE12CEC16FD0649F4DF91B6
:1008F000CF911F910F91FF90EF90DF90CF900895CF
:10090000B8018D2D9C2D0E9475008FEFE81AF80A12
:10091000005C1F4FE9CF4F925F926F927F928F9250
:100920009F92AF92BF92CF92DF92EF92FF920F937E
:100930001F93CF93DF93CDB7DEB72E970FB6F89402
:10094000DEBF0FBECDBF49015A016B017C01F8012A
:10095000D80180E88D9340E050E0BA0117E7412EBE
:10096000512C612C712C481859086A087B08930196
:1009700082010F731127222733274017510762077F
:10098000730708F485C09401A501B601C70103E00F
:100990000E949309B62FA72F6C01B901CA010E94CA
:1009A0008C0969877A878B879C876B2F7A2FC60182
:1009B00000E20E94AE09C901DA012FE34222552468
:1009C000E40DF51DAF014F5F5F4F5E874D87CB2E66
:1009D000DD24EE24FF24782F662755274427C42AD8
:1009E000D52AE62AF72A492F5A2F6B2F7727442733
:1009F00066277727C42AD52AE62AF72ABA2FA92FED
:100A0000982F882788279927BB27C82AD92AEA2A16
:100A1000FB2AA70196013A834B835C8349855A855B
:100A20006B857C859A01AB0160E070E080E090E02E
:100A30000E949309A82F822F8C2981838A81382BC9
:100A4000ED85FE853183FB814F2BED85FE8542834D
:100A5000FC815F2BED85FE85538364837583A683BC
:100A600097832E960FB6F894DEBF0FBECDBFDF91F1
:100A7000CF911F910F91FF90EF90DF90CF90BF909B
:100A8000AF909F908F907F906F905F904F90089560
:100A90001D924F5F5F4F6F4F7F4F6FCF2F923F92EF
:100AA0004F925F926F927F928F929F92AF92BF927E
:100AB000CF92DF92EF92FF920F931F93CF93DF932A
:100AC000CDB7DEB7CF58D1090FB6F894DEBF0FBE51
:100AD000CDBF382E292ECF57DF4F0883C158D040C5
:100AE000C557DF4F1883CB58D040C457DF4F2883FA
:100AF000CC58D040C357DF4F3883CD58D040C25771
:100B0000DF4F4883CE58D040C157DF4F5883CF586E
:100B1000D0408B01B7019C2D8D2D6501E92EF82E5B
:100B20004501570180EC8822260137019FE34922C5
:100B3000552466247724DB01A80DB91DC757DF4F64
:100B4000B983A883C958D040A701960186E056957D
:100B50004795379527958A95D1F7832D922D0E9439
:100B6000660457019601A50160E070E080E090E026
:100B7000CF57DF4FA880C158D040C557DF4FB8804E
:100B8000CB58D040C457DF4FC880CC58D040C35753
:100B9000DF4FD880CD58D040C257DF4FE880CE58C5
:100BA000D040C157DF4FF880CF58D0400E94C909CC
:100BB000CF57DF4F2883C158D040CE57DF4F3883FF
:100BC000C258D040CD57DF4F4883C358D040CC5790
:100BD000DF4F5883C458D040CB57DF4F6883C55888
:100BE000D040CA57DF4F7883C658D040C957DF4F2F
:100BF0008883C758D040C857DF4F9883C858D04023
:100C000097E7C92ED12CE12CF12CCF57DF4F8881EB
:100C10009981AA81BB81C158D040C81AD90AEA0A71
:100C2000FB0A9FE3C922DD24EE24FF24D301C20185
:100C30000996A11DB11DC80ED91EEA1EFB1E1A82FF
:100C40001982FE0133968EE7DF011D928A95E9F73E
:100C5000A201C757DF4F68817981C958D040CE01C2
:100C600001960E94D20901E010E00C0F1D1F040D37
:100C7000151DCF57DF4F2881C158D040CE57DF4FC9
:100C80003881C258D040CD57DF4F4881C358D0403B
:100C9000CC57DF4F5881C458D040CB57DF4F6881C5
:100CA000C558D040CA57DF4F7881C658D040C95781
:100CB000DF4F8881C758D040C857DF4F9881C85848
:100CC000D0400E948B04A701960166E05695479597
:100CD000379527956A95D1F7BE016F5F7F4F832DBA
:100CE000922D0E946604C157DF4F0FB6F894DEBF05
:100CF0000FBECDBFDF91CF911F910F91FF90EF906D
:100D0000DF90CF90BF90AF909F908F907F906F902B
:100D10005F904F903F902F900895CF93DF9300D036
:100D200000D0CDB7DEB7FC01DB019C01205E3F4F58
:100D30004191519161917191CB01BA010E948C094D
:100D400069837A838B839C836D937D938D939D932D
:100D5000E217F30769F70F900F900F900F90DF9154
:100D6000CF9108952F923F924F925F926F927F9210
:100D70008F929F92AF92BF92CF92DF92EF92FF92AB
:100D80000F931F93CF93DF93CDB7DEB7A0970FB626
:100D9000F894DEBF0FBECDBF3C01490180E2E0E226
:100DA000F1E0DE01119601900D928A95E1F71A01AA
:100DB0002B0180EC28225A016B018FE3A822BB246F
:100DC000CC24DD248301020D131D9A01AB0186E0C2
:100DD00056954795379527958A95D1F7B301CE015A
:100DE00001960E94660478018101920140E050E082
:100DF00060E070E0CE0101960E944E05B401CE0184
:100E000001960E948D06A0960FB6F894DEBF0FBE25
:100E1000CDBFDF91CF911F910F91FF90EF90DF90A9
:100E2000CF90BF90AF909F908F907F906F905F908A
:100E30004F903F902F900895CF93DF9300D000D034
:100E4000CDB7DEB7843038F4823000F584E090E02E
:100E5000A0E0B0E01FC084508230C0F381E08F93E7
:100E600082E38F938FE892E09F938F9382EB92E0DF
:100E70009F938F938091FD028F938091FC028F93BB
:100E80000E94E2098DEF90E00E94970C88E090E0CC
:100E9000A0E0B0E089839A83AB83BC8369817A81C7
:100EA0008B819C810F900F900F900F90DF91CF91CD
:100EB0000895CF93DF9300D000D0CDB7DEB7843054
:100EC00038F4823000F580E490E0A0E0B0E01FC08C
:100ED00084508230C0F381E08F938AE58F938FE84E
:100EE00092E09F938F9382EB92E09F938F938091F8
:100EF000FD028F938091FC028F930E94E2098DEF97
:100F000090E00E94970C80E890E0A0E0B0E0898338
:100F10009A83AB83BC8369817A818B819C810F909A
:100F20000F900F900F90DF91CF910895CF93DF93A3
:100F300000D000D0CDB7DEB78630C0F081E08F930F
:100F400082E88F938FE892E09F938F9382EB92E0F9
:100F50009F938F938091FD028F938091FC028F93DA
:100F60000E94E2098DEF90E00E94970CE82FF0E0DC
:100F7000EA5BFE4F8081282F30E050E040E0CA015C
:100F8000B9010F900F900F900F90DF91CF910895BE
:100F9000CF93DF9300D000D0CDB7DEB78630C0F05E
:100FA00081E08F938AEA8F938FE892E09F938F93EB
:100FB00082EB92E09F938F938091FD028F938091BB
:100FC000FC028F930E94E2098DEF90E00E94970C43
:100FD000E82FF0E0E05CFE4F8081282F30E050E009
:100FE00040E0CA01B9010F900F900F900F90DF9170
:100FF000CF9108952F923F924F925F926F927F927E
:101000008F929F92AF92BF92CF92DF92EF92FF9218
:101010000F931F93CF93DF93CDB7DEB7C05ED10997
:101020000FB6F894DEBF0FBECDBF382E292ECB01F0
:10103000F42FE52FA9016F2F7E2F560167014E0176
:1010400021E8820E911C20E4D4011D922A95E9F733
:10105000413451056105710508F0A6C0BC01C40109
:101060000E94D2093E01B1E46B0E711C40E450E0D5
:1010700066E370E0C3010E94DB09F3012401A401CF
:101080002191DA013D91AD01CF0101972327DC01C8
:101090002C93E815F905A1F740E450E06CE570E009
:1010A000CE0101960E94DB09FE0131964F01D40169
:1010B0008D914D01F20191912F01FD013197892709
:1010C0008083A615B70599F780E2ECE6F2E0DE0131
:1010D000AF53BF4F01900D928A95E1F7CE018F5328
:1010E0009F4F0E94650021E030E040E050E0B401F5
:1010F000CE018F539F4F0E946604780100E410E0F8
:1011000020E030E040E050E060E070E0CE018F533E
:101110009F4F0E944E05B401CE018F539F4F0E94F6
:101120008D06CE018F539F4F0E94650021E030E075
:1011300040E050E0BE016F5F7F4FCE018F539F4F65
:101140000E94660480E2A82EB12CC12CD12C74011F
:1011500020E030E040E050E060E070E0CE018F53EE
:101160009F4F0E944E05632D722DCE018F539F4FCE
:101170000E948D06C052DF4F0FB6F894DEBF0FBE3F
:10118000CDBFDF91CF911F910F91FF90EF90DF9036
:10119000CF90BF90AF909F908F907F906F905F9017
:1011A0004F903F902F90089594010E94B2065ACF1D
:1011B000CF93DF9300D000D0CDB7DEB7462F572FA7
:1011C000BC014F3F8FEF580768078FE77807F0F4AF
:1011D00081E090E0A0E0B0E04115510561057105A6
:1011E00031F0DB01CA01880F991FAA1FBB1F898339
:1011F0009A83AB83BC8369817A818B819C810F90B8
:101200000F900F900F90DF91CF9108958FEF9FEF88
:10121000DC01EDCF833030F4E82FF0E0E457FD4FF0
:10122000808108951F9280E38F9385ED92E09F93D4
:101230008F9382EB92E09F938F938091FD028F9327
:101240008091FC028F930E94E2098DEF90E00E9452
:10125000970C1092CD008AE08093CC00E8ECF0E08F
:1012600080818D7F808386E08093CA0088E18093AF
:10127000C9000C9470FB8091C80087FFFCCF80915F
:10128000CE000C9470FBCF93C82F8A3019F48DE0F8
:101290000E9443098091C80085FFFCCFC093CE0017
:1012A000CF910C9470FBCF93DF93EC018991811166
:1012B00004C0DF91CF910C9470FB0E944309F6CFDC
:1012C000CDB7DEB7A0970FB6F894DEBF0FBECDBF87
:1012D0000E94290984B1806684B96E0181E2C80E3A
:1012E000D11C8E010F5F1F4F78010E943B09F7014F
:1012F00081937F01EC15FD05C1F78FE60E9443093C
:10130000C8010E9464FAF80181918F010E9443098B
:101310000C151D05C1F7E5CF6927962769277827A2
:10132000872778270895002E083090F0982F872F70
:10133000762F652F542F432F322F22270850F4CFBA
:10134000220F331F441F551F661F771F881F991FC9
:101350000A95B2F7002D089597FD1094002E0830DD
:1013600098F00850232F342F452F562F672F782FB2
:10137000892F912DF4CF159497958795779567953B
:1013800057954795379527950A95AAF71124002D6B
:1013900008952A0D3B1D4C1D5D1D6E1D7F1D801F78
:1013A000911F0895FB01DC0102C001900D92415094
:1013B0005040D8F70895DC0101C06D934150504072
:1013C000E0F70895CF93DF93CDB7DEB7AE01475F67
:1013D0005F4F6F8178858D819E810E94F209DF9138
:1013E000CF9108952F923F924F925F926F927F928A
:1013F0008F929F92AF92BF92CF92DF92EF92FF9225
:101400000F931F93CF93DF93CDB7DEB72F970FB610
:10141000F894DEBF0FBECDBF7C013B018A01DC0129
:1014200017961C921E92169713968C9181FFD8C125
:101430009AE0292EFE0131964F01D70113969C9117
:10144000F30193FD859193FF81913F01882309F476
:1014500048C1853239F493FD859193FF81913F0115
:10146000853229F4B70190E00E94090CE6CFB12C37
:10147000412C512CBFE1B51538F08B3209F188F4BD
:10148000803201F1833221F157FC3AC020ED280F60
:101490002A3040F556FE1FC0B29C200D1124B22EFA
:1014A00006C08D3291F0803379F7689450F8F301DB
:1014B00093FD859193FF81913F018111DBCF20C086
:1014C000689451F8689452F8F2CF689453F8EFCFCB
:1014D000689454F8ECCF429C200D1124422E68945D
:1014E00055F8E5CF8E3229F456FCFBC0689456F8C7
:1014F000DECF8C3619F4689457F8D9CF8836B9F214
:10150000982F9F7D95549330C0F08336A1F1833797
:10151000C1F1833509F05BC0D801CD90DD908D011C
:101520006B2D70E056FC02C06FEF7FEFC6010E948A
:10153000F30B5C01689457F80AC00C5F1F4FEFE390
:10154000E983AA24A394B12C6401E89457F853FCCE
:1015500004C04A141B0409F018F5342CA114B1047A
:1015600031F5332009F469CFB70180E290E00E94A1
:10157000090C3A94F6CFD8018C9189830E5F1F4FE6
:10158000E0CFF801C190D1908F016B2D70E056FC37
:1015900002C06FEF7FEFC6010E94FE0B5C01D5CF4A
:1015A000B70180E290E00E94090C4A94D2CFF60184
:1015B00057FC859157FE81916F01B70190E00E9421
:1015C000090C31103A94B1E0AB1AB108C7CF843698
:1015D00019F0893609F074C0F80157FE6AC06191AC
:1015E0007191819191918F01E52DEF76DE2E97FF1C
:1015F00009C090958095709561957F4F8F4F9F4F53
:101600006894D7F82AE030E0A4010E94390CC82E73
:10161000C818AC2C5D2CD6FE0CC0E89450F8CB1446
:1016200040F4D4FE05C0D2FC03C05D2D5E7E552E75
:10163000AB2C54FEADC0FE01EC0DF11D808180335A
:1016400009F09FC0652D697E562E752D7870372E56
:1016500053FCADC050FEA7C0BC2CA41418F44C0C15
:10166000B42CBA1854FEA9C0B70180E390E00E94E0
:10167000090C52FE09C088E790E051FE02C088E5DF
:1016800090E0B7010E94090CCB1408F4A2C0CA94E0
:10169000D12C8FEFC81AD80AC80CD91CD6018E914C
:1016A0006D01B70190E00E94090C8C149D04B1F704
:1016B00058CF61917191072E000C880B990B93CF35
:1016C000D52CE894D4F82AE030E08537E1F1F52D07
:1016D000F97FDF2E803751F100F5883551F18F36D3
:1016E00081F1F701868197812F960FB6F894DEBFBE
:1016F0000FBECDBFDF91CF911F910F91FF90EF9063
:10170000DF90CF90BF90AF909F908F907F906F9021
:101710005F904F903F902F900895883711F7D4FE37
:1017200002C06894D2F820E130E00DC06894D4F88B
:10173000F6CF54FE03C02F2F2660D22E20E132E0D8
:1017400002C028E030E0F801D7FE15C04191519168
:10175000619171914C875D876E877F878F01A401AE
:101760006C857D858E859F850E94390CC82EC81892
:10177000E894D7F84ECF81919191AC0170E060E090
:10178000E9CF52FC02C0A39460CFA394A3945DCF91
:10179000852D867809F459CFF6CFB70180E290E025
:1017A0000E94090CA394A414C0F3312C5BCF342CF9
:1017B0003A18A41408F456CFF8CF852D867809F48A
:1017C00063CF8BE251FE80E257FC8DE2B70190E0DF
:1017D00059CFB70180E390E00E94090CBA9454CF2E
:1017E0008FEF9FEF81CFFC01059061507040011099
:1017F000D8F7809590958E0F9F1F0895FC0161503A
:10180000704001900110D8F7809590958E0F9F1F22
:1018100008950F931F93CF93DF93182F092FEB0198
:101820008B8181FD09C01FEF0FEF812F902FDF917A
:10183000CF911F910F91089582FF14C02E813F8197
:101840008C819D81281739073CF4E881F981CF010B
:1018500001969983888310838E819F8101969F834F
:101860008E83E3CFE885F985812F0995892BA1F334
:10187000DACFFA01AA27283051F1203181F1E8941A
:101880006F936E7F6E5F7F4F8F4F9F4FAF4FB1E073
:101890003ED0B4E03CD0670F781F891F9A1FA11D6E
:1018A000680F791F8A1F911DA11D6A0F711D811D6F
:1018B000911DA11D20D009F468943F912AE0269F34
:1018C00011243019305D3193DEF6CF010895462F93
:1018D0004770405D4193B3E00FD0C9F7F6CF462F74
:1018E0004F70405D4A3318F0495D31FD40524193DD
:1018F00002D0A9F7EACFB4E0A6959795879577959A
:101900006795BA95C9F700976105710508959B0120
:10191000AC010A2E06945795479537952795BA95A9
:10192000C9F7620F731F841F951FA01D0895F894B7
:10193000FFCF67E6096A85AE67BB72F36E3C3AF586
:101940004FA57F520E518C68059BABD9831F19CDD3
:10195000E05B67E6096A85AE67BB72F36E3C3AF5F9
:101960004FA57F520E518C68059BABD9831F19CDB3
:10197000E05B1C2030401410070806080504982F6F
:101980008A4291443771CFFBC0B5A5DBB5E95BC294
:101990005639F111F159A4823F92D55E1CAB98AA39
:1019A00007D8015B8312BE853124C37D0C55745D5D
:1019B000BE72FEB1DE80A706DC9B74F19BC1C169DB
:1019C0009BE48647BEEFC69DC10FCCA10C246F2CB3
:1019D000E92DAA84744ADCA9B05CDA88F976525100
:1019E0003E986DC631A8C82703B0C77F59BFF30B17
:1019F000E0C64791A7D55163CA0667292914850A0D
:101A0000B72738211B2EFC6D2C4D130D3853547302
:101A10000A65BB0A6A762EC9C281852C7292A1E83A
:101A2000BFA24B661AA8708B4BC2A3516CC719E8B2
:101A300092D1240699D685350EF470A06A1016C18D
:101A4000A419086C371E4C774827B5BCB034B30CCA
:101A50001C394AAAD84E4FCA9C5BF36F2E68EE829F
:101A60008F746F63A5781478C8840802C78CFAFF56
:101A7000BE90EB6C50A4F7A3F9BEF27871C667E68E
:101A8000096A85AE67BB72F36E3C3AF54FA57F528B
:101A90000E518C68059BABD9831F19CDE05B67E6BF
:101AA000096A85AE67BB72F36E3C3AF54FA57F526B
:101AB0000E518C68059BABD9831F19CDE05B0200EA
:101AC000012E2E2F2E2E2F636F72652F6372797069
:101AD000746F2F6861636C2F4861636C5F4841537A
:101AE000482E63004B72654D4C696E20696E636FC2
:101AF0006D706C657465206D61746368206174201D
:101B000025733A25640A002E2E2F2E2E2F636F7216
:101B1000652F63727970746F2F6861636C2F4861F1
:0A1B2000636C5F537065632E630071
:10F700002A1B3219000099DA32BEBD4EE65DFE2595
:0AF71000793DD889AD2FBB71B5FB20
:020000040001F9
:10F000009C0181E08BBFE2E0FFEE8791969196959F
:10F0100087952817390768F082EF9CEFFC0147912C
:10F0200056912417350769F00296452BB9F780E011
:10F030000895E4E0FFEE8791969146E05FEE81113E
:10F0400002C081E00895FA0167917691261737078B
:10F0500071F34E5F5F4F8150F2CFFF920F931F937A
:10F06000CF93DF938A019B0143E0F80120935B007B
:10F0700040935700E89507B600FCFDCFDC01EC019A
:10F08000D395B901A801FF24F3948C9111969C911A
:10F0900011970C01FA0160935B00F0925700E8951C
:10F0A00011244E5F5F4F6F4F7F4F1296CA17DB07D9
:10F0B00061F785E0F80120935B0080935700E895A5
:10F0C00007B600FCFDCF81E180935700E895DF9102
:10F0D000CF911F910F91FF900895E2EDFCEFDC01BD
:10F0E00081E08BBF80E207900D928A95E1F7089549
:10F0F000262FFA01DC012BBF222707900D922395C2
:10F10000E1F70895CF93AB01CFB7F8946115784F2D
:10F1100038F470E060E058506F4F7F4F0E942DF838
:10F12000CFBFCF9108958F929F92AF92BF92CF920F
:10F13000DF92EF92FF921F93CF93DF93CDB7DEB7AD
:10F14000CC54D2400FB6F894DEBF0FBECDBF81E0E5
:10F150008BBFE0E0FFEEE790F690E4E0FFEE679112
:10F16000769113E0160F110FCE0101960E946DF8F3
:10F1700040EA50E0BE016F5F7F4FCE018F5F9D4F31
:10F180000E9499FD6701812C38EF932EA12CB12CA0
:10F190008FEFC816D10411F008F06AC04F2D552723
:10F1A00080E0849FB001859F700D741B1124E60ED2
:10F1B000F71E70E060E048505F4F6F4F7F4F762F33
:10F1C000652F542F4427CE0101960E9478F840E025
:10F1D0005FEE61E070E081E090E08C0F9D1F8E0D8E
:10F1E0009F1D0E9478F8E10EF11CA70123E0440F57
:10F1F000551F2A95E1F7BE016F5F7F4FCE018F5FEC
:10F200009D4F0E94FCFD61E070E06C0F7D1F6E0D54
:10F210007F1D44E150E0CE01875C9D4F0E9453FE6C
:10F22000BE016F5F7D4FCE0101960E943CFE44E11E
:10F2300050E0BE01675C7D4FCE0101960E945CFEEE
:10F240009C0181E0232B09F080E0C45BDD4F0FB609
:10F25000F894DEBF0FBECDBFDF91CF911F91FF901D
:10F26000EF90DF90CF90BF90AF909F908F900895D8
:10F27000B501A401CE0101960E9478F8BE016F5F2E
:10F280007F4FCE018F5F9D4F0E94FAFDBE016F5BE5
:10F290007F4FCE018F5F9D4F0E94FAFDBE016F57D9
:10F2A0007F4FCE018F5F9D4F0E94FAFDBE016F53CD
:10F2B0007F4FCE018F5F9D4F0E94FAFDDA948FEF52
:10F2C000981AA80AB80A64CF4F925F926F927F9201
:10F2D0008F929F92AF92BF92CF92DF92EF92FF9266
:10F2E0000F931F93CF93DF93CDB7DEB7DA950FB6A9
:10F2F000F894DEBF0FBECDBFCFB6F89481E08BBFD0
:10F30000E2E0FFEE8790969096948794D12C712C32
:10F31000A12C58EFB52EF12CE12C662463948E14A9
:10F320009F0481F50E9493F8882309F437C081E097
:10F330008BBFE0E0FFEE8791969101E010E0811134
:10F3400002C010E000E0892F9927080F191FB12C87
:10F35000A12CF12CE12C0E151F0509F060C040E036
:10F360005FEE61E070E0CE0101960E9478F840E027
:10F3700057EF60E070E0CE0101960E942DF8CFBEFD
:10F380000C9400007BBEF50107911691C801DD20A9
:10F3900009F473C00E9400F8811157C080E0D39532
:10F3A0000FB6F894DEBF0FBECDBFDF91CF911F9196
:10F3B0000F91FF90EF90DF90CF90BF90AF909F9014
:10F3C0008F907F906F905F904F900895C80188272D
:10F3D000987F8115904FB1F433E0169507953A95D3
:10F3E000E1F7C8018F77992706FF02C080689F6FF9
:10F3F00097012F5F3F4F820F931F0E9400F88111EA
:10F4000061C058C0C8018827907E8115904C09F0D2
:10F4100059C0C8019F7013FFEBCF906FE9CF712CDB
:10F42000612CB301A50158506F4F7F4FCE0101965B
:10F430000E9478F8B301A501CE0101960E942DF833
:10F440008FEFE81AF80AB39486CFC8018D7F8C300D
:10F450009449B9F4C7010E9400F881119FCFD624C6
:10F460008FEFE81AF80A22E0A20EB11CA114B10431
:10F4700009F055CF7724739452CF8D7F8C30944907
:10F4800071F3C801885095490297A0F0083125E929
:10F49000120781F0093084E9180761F0083D25E979
:10F4A000120741F0C8018F709E7F865090490297E5
:10F4B00008F08CCFDD2009F471CFC7010E9400F85D
:10F4C00081116CCFD12CCCCF5F926F927F928F92B3
:10F4D0009F92AF92BF92CF92DF92EF92FF920F93E3
:10F4E0001F93CF93DF93CDB7DEB7D2500FB6F8940A
:10F4F000DEBF0FBECDBF3C015FB6F894CE018F5189
:10F500009E4F0E946DF88E010F571E4FF801B09666
:10F5100080E2DF01982F1D929A95E9F7E05CFF4F9A
:10F52000D80101900D928A95E1F74E01AFEB8A1A4E
:10F53000AEEF9A0A40E450E066E370E0C4010E9436
:10F54000DB09F4017801A8018191DA019D91AD01F7
:10F550009F01215031098927D9018C93E017F107C8
:10F5600099F740E450E06CE570E0CE018F5F9E4F6C
:10F570000E94DB09FE01EF5FFE4F8191D7019D9153
:10F580007D01DF01119789278C93E815F905A9F70B
:10F5900080E2E0E0F1E0DE01AF53BE4F01900D925A
:10F5A0008A95E1F7CE018F539E4F0E94650021E0BE
:10F5B00030E040E050E0B401CE018F539E4F0E94F6
:10F5C0006604C12CD12C7601B701A601CE010196AB
:10F5D0000E9478F824E030E040E050E0BE016F5F28
:10F5E0007F4FCE018F539E4F0E946604BFEFDB1A00
:10F5F000EB0AFB0AC11488E2D806E104F10421F702
:10F6000080E2A82EB12CC12CD12C730100E410E0B3
:10F6100020E030E040E050E060E070E0CE018F5349
:10F620009E4F0E944E05B401CE018F539E4F0E9403
:10F630008D06CE018F539E4F0E94650021E030E081
:10F6400040E050E0BE016F5F7E4FCE018F539E4F72
:10F650000E946604740120E030E040E050E060E089
:10F6600070E0CE018F539E4F0E944E05B301CE0134
:10F670008F539E4F0E948D065FBEDE5F0FB6F894DB
:10F68000DEBF0FBECDBFDF91CF911F910F91FF90D5
:10F69000EF90DF90CF90BF90AF909F908F907F9032
:10F6A0006F905F9008952F932FB7F8942F932BB7F7
:10F6B0002F933F934F938F939F93EF93FF93CF019C
:10F6C0004FD0882361F0FF91EF919F918F914F91DF
:10F6D0003F912F912BBF2F912FBF2F910994FFCFD7
:10F6E0002F932FB7F8942F932BB72F933F934F93CC
:10F6F0008F939F93EF93FF93EDB7FEB73A96919157
:10F7000080812ED0882359F3FF91EF919F918F91A3
:10F710004F913F912F912BBF2F912FBF2F91089584
:10F720002F932FB7F8942F932BB72F933F934F938B
:10F730008F939F93EF93FF93EDB7FEB73A96919116
:10F7400080810ED0882359F2FF91EF919F918F9184
:10F750004F913F912F912BBF2F912FBF2F91189534
:10F76000E2E0F7EF259134913695279582179307BC
:10F7700078F0E2EFFCEF21E02BBF27913791821761
:10F78000930711F481E00895232BB9F780E00895E1
:10F79000E4E0F7EF4491E6E0F7EF442399F3259195
:10F7A00035918217930791F34150F7CFDB01FC01AC
:10F7B00055E0149744E018960E9001924A95E1F7AF
:10F7C0005A95C1F70895523090F09F938F937F938D
:10F7D0006F935F934F9377D04F915F916F917F912C
:10F7E0008F919F91525030E4630F711DECCFEDB7B4
:10F7F000FEB70FB6E054F040F894EDBF0FBEFEBF69
:10F800003196242F26952695269550FB25F9DB0168
:10F81000222329F0122E0D9001921A94E1F730E87C
:10F82000032E37E0342329F006943A95E9F73C910A
:10F83000032A01922395293308F421C030E4321BB6
:10F8400019F011923A95E9F7FF973197BF01FF93AD
:10F85000EF939F938F935F934F9335D04F915F9129
:10F860008F919F91EF91FF91DC0155963C91325021
:10F870003D9326E03C9130403D932A95D9F738E3FB
:10F88000321B21F0112411923A95E9F7DC015496CC
:10F8900038960D90040E02920D90051E029236E0ED
:10F8A0000D90011C02923A95D9F7F897BF010BD041
:10F8B000EDB7FEB70FB6FF963196F894EDBF0FBEC9
:10F8C000FEBF11240895AF92BF92CF92DF92EF92C4
:10F8D000FF920F931F93CF93DF934DB75EB79A01BB
:10F8E000FB0148555040DA010FB6F8944DBF0FBEEA
:10F8F0005EBF2F933F938F939F93C1E0CBBFEC01EB
:10F90000119604E129912D930A95E1F75D01FB0120
:10F9100000E123812D9322812D9321812D9320813C
:10F920002D9334960A95A9F70024102F110F110F6B
:10F930001C73D501A10FB11DCD90DD90ED90FD9010
:10F94000003114F128E005D020E203D024E301D0F7
:10F950000EC0210F2F73D501A20FB11D3D91C326FB
:10F960003D91D3263D91E3263D91F32608953F2D09
:10F97000331FCC1CDD1CEE1CFF1CD501A10FB11DDB
:10F98000CD92DD92ED92FD92D50114972D91C20E8C
:10F990002D91D21E2D91E21E2D91F21E54976D9144
:10F9A0007D918D919D91292F35E0221F661F771F34
:10F9B000881F991F3A95C9F7C60ED71EE81EF91E73
:10F9C000ECEAFAEFE00DF11D2691201709F40394FB
:10F9D000E0EBFAEF000C000CE00DF11D069406942C
:10F9E0002791C20E2791D21E2791E21E2791F21E67
:10F9F000ED013C960894F795E7950995622F0995D6
:10FA0000722F0995822F0995C60ED71EE81EF21E89
:10FA1000E501249730E12A912C833A95E1F7E5013D
:10FA20006497C992D992E992F992CC80DD80EE80F8
:10FA3000FF802C2D32E02795F794E794D794C79454
:10FA40003A95C9F7CC82DD82EE82FF8203950035BC
:10FA50000CF46BCF2497BF91AF9155E0889444E0AC
:10FA60002C913991231F2D934A95D1F75A95B1F7CF
:10FA700011962C9132E0230F2D9336E02C91211D0D
:10FA80002D933A95D9F75F914F910FB6F8944DBFEA
:10FA90000FBE5EBF1124DF91CF911F910F91FF9098
:10FAA000EF90DF90CF90BF90AF90089514283C0066
:10FAB0009979825AA1EBD96EDCBC1B8FD6C162CA80
:10FAC00006C0000017C000000BC0000013C0299141
:10FAD000322F30954B8124234F81342323270895DF
:10FAE0002991322F4B8124235F81352323274523FE
:10FAF0002427089529913B8123273F8123270895B7
:10FB0000DC01EEE1FBEF64E171E07BBF77917D9377
:10FB10006A95E1F768E01D926A95E9F70895012377
:10FB2000456789ABCDEFFEDCBA9876543210F0E130
:10FB3000D2C3AF92BF92CF92DF92EF92FF920F9318
:10FB40001F93CF93DF93CDB7DEB7C054D1090FB663
:10FB5000F894DEBF0FBECDBF8C01CE0101967C01B3
:10FB600080E4F70111928A95E9F7495F5F4F83E0DE
:10FB7000569547958A95E1F7C7010E9453FE6701A4
:10FB80005E01F1E4AF0EB11CF70196E38191DF0154
:10FB9000119789278C93EA15FB05C1F7C8010E94CC
:10FBA00080FDB701C8010E9463FC9AE6F6018191CD
:10FBB0006F01319789278083CA14DB04B9F7045E8B
:10FBC0001F4FC8010E9480FDB701C8010E9463FC5D
:10FBD000C05CDF4F0FB6F894DEBF0FBECDBFDF9124
:10FBE000CF911F910F91FF90EF90DF90CF90BF903A
:10FBF000AF9008950C9463FCAF92BF92CF92DF92C6
:10FC0000EF92FF920F931F93CF93DF937C01EB0151
:10FC10008A016A015B01C11482E0D80618F5B801B7
:10FC2000672F7727669580E09EEF689FA001699F08
:10FC3000500D789F500D1124400F511F96E0660F14
:10FC4000771F9A95E1F76C0F7D1FC701DF91CF9168
:10FC50001F910F91FF90EF90DF90CF90BF90AF90EA
:10FC60000C94E3FBB501C7010E9463FC80E4A80E7D
:10FC7000B11C82E0D81ACFCF0F931F93CF93DF939D
:10FC80008C01EB010E94D6FB6C9640EA50E0B80173
:10FC9000CE010E94E3FBBE01C801DF91CF911F910D
:10FCA0000F910C94D6FBFB01DC0102C001900D9278
:10FCB00041505040D8F70895FB01DC0104C08D91FC
:10FCC0000190801921F441505040C8F7881B990BCE
:10FCD00008956E26886E4E0707E1B30F24160E991D
:10FCE000B912E461C424B30F24160E99B912E46169
:10FCF000C42453FB70FB90FB82F864F964FA0000A3
:00000001FF
