:020000040000FA
:100000000C9446000C9463000C9463000C94630001
:100010000C9463000C9463000C9463000C946300D4
:100020000C9463000C9463000C9463000C946300C4
:100030000C9463000C9463000C9463000C946300B4
:100040000C9463000C9463000C9463000C946300A4
:100050000C9463000C9463000C9463000C94630094
:100060000C9463000C9463000C9463000C94630084
:100070000C9463000C9463000C9463000C94630074
:100080000C9463000C9463000C94630011241FBE55
:10009000CFEFD0E4DEBFCDBF13E0A0E0B1E0E2EFF0
:1000A000F1E202C005900D92AA32B107D9F723E020
:1000B000AAE2B3E001C01D92A133B207E1F70E94AA
:1000C0009E0D0C94F7100C940000ADE6B2E0FC011C
:1000D00080964D915D916D917D9141935193619386
:1000E0007193E817F907A9F708952F923F924F925D
:1000F0005F926F927F928F929F92AF92BF92CF92B8
:10010000DF92EF92FF920F931F93CF93DF93CDB7C0
:10011000DEB7C254D1400FB6F894DEBF0FBECDBFDC
:10012000C55CDE4F8883CB53D140C45CDE4F9883DF
:10013000CC53D1401B0180E091E0FE013196DF01FC
:100140009C011D9221503040E1F7AE014F535109FF
:10015000C75DDE4F59834883C952D140C12CD12C91
:100160007601C75DDE4FA881B981C952D140A05C3C
:10017000BF4FCB5DDE4FB983A883C552D140B0E1FC
:10018000CB16D104E104F10408F0B6C2D601AA0FDF
:10019000BB1FAA0FBB1FA20DB31D4D905D906D90AC
:1001A0007C90CF5DDE4F488259826A827B82C15249
:1001B000D140C301B2010E94EC0DCB5DDE4FA8819E
:1001C000B981C552D1406D937D938D939C931397C4
:1001D000FFEFCF1ADF0AEF0AFF0AC75DDE4F288163
:1001E0003981C952D1402C5F3F4FC75DDE4F398303
:1001F0002883C952D14030E4C316D104E104F1048C
:1002000009F0AFCF1E0141E0240E341E80E2C55C30
:10021000DE4FE881CB53D140C45CDE4FF881CC5334
:10022000D140D10101900D928A95E1F7D1018D90D5
:100230009D90AD90BC90139714964D905D906D90ED
:100240007C901797CB5DDE4F488259826A827B8211
:10025000C552D14018964D905D906D907C901B9743
:10026000C35DDE4F488259826A827B82CD52D14083
:100270001C964D905D906D907C901F97CB5CDE4FEF
:10028000488259826A827B82C553D1405096CD9074
:10029000DD90ED90FC90539754964D905D906D904D
:1002A0007C905797CF5DDE4F488259826A827B826D
:1002B000C152D14058964D905D906D907C905B9767
:1002C000CF5CDE4F488259826A827B82C153D14023
:1002D0005C964D905D906D907C905F97C75DDE4F12
:1002E000488259826A827B82C952D140FE0131968E
:1002F000CF5BDE4FF983E883C154D1402DE631E076
:10030000C75CDE4F39832883C953D140CF5BDE4FB2
:10031000E881F981C154D14081919191A191B1912C
:10032000CF5BDE4FF983E883C154D140B701A6010A
:100330002AE1440F551F661F771F2A95D1F79701B1
:100340008601E6E03695279517950795EA95D1F74A
:10035000402B512B622B732B97018601F5E1000F87
:10036000111F221F331FFA95D1F726013701EBE049
:100370007694679457944794EA95D1F70429152900
:10038000262937290427152726273727260137014D
:10039000F9E17694679457944794FA95D1F7B701A9
:1003A000A601E7E0440F551F661F771FEA95D1F7B6
:1003B0004429552966297729042715272627372711
:1003C000C75CDE4FE881F981C953D140419051901B
:1003D00061907190C75CDE4FF983E883C953D140C7
:1003E000840D951DA61DB71D080F191F2A1F3B1F41
:1003F000260137014094509460947094CF5CDE4F96
:10040000488159816A817B81C153D1404422552260
:1004100066227722CF5DDE4F88819981AA81BB81D8
:10042000C152D1408C219D21AE21BF21842595252B
:10043000A625B725800F911FA21FB31FC75DDE4FF2
:10044000488059806A807B80C952D140840D951DB7
:10045000A61DB71DB501A401FEE1440F551F661F7F
:10046000771FFA95D1F72401350112E0769467944D
:10047000579447941A95D1F7442A552A662A772A21
:10048000B501A40103E1440F551F661F771F0A95AC
:10049000D1F795018401EDE03695279517950795DD
:1004A000EA95D1F7402B512B622B732B442655260E
:1004B00066267726B501A401F6E1769567955795EE
:1004C0004795FA95D1F795018401EAE0000F111FD5
:1004D000221F331FEA95D1F7402B512B622B732B30
:1004E0004425552566257725CB5DDE4F088119818A
:1004F0002A813B81C552D140082519252A253B2553
:10050000C35DDE4F488059806A807B80CD52D140E8
:100510000421152126213721CB5DDE4F48805980EB
:100520006A807B80C552D140482059206A207B20B8
:100530000425152526253725040F151F261F371FCF
:10054000080F191F2A1F3B1FCB5CDE4F48815981C2
:100550006A817B81C553D140840F951FA61FB71FA9
:10056000C35DDE4F488059806A807B80CD52D14088
:10057000CB5CDE4F488259826A827B82C553D14070
:10058000CF5CDE4F488159816A817B81C153D14064
:10059000C75DDE4F488359836A837B83C952D1404C
:1005A000CF5BDE4F68817981C154D1402616370672
:1005B00009F057C1CF5FDE4F088319832A833B833D
:1005C000C150D140CB5FDE4F88829982AA82BB8224
:1005D000C550D140CB5DDE4F488059806A807B801A
:1005E000C552D140C75FDE4F488259826A827B8202
:1005F000C950D140C35DDE4F288139814A815B817A
:10060000CD52D140C35FDE4F288339834A835B8359
:10061000CD50D140CF5EDE4F88839983AA83BB83C0
:10062000C151D140CB5EDE4FC882D982EA82FB82C3
:10063000C551D140CF5DDE4F488159816A817B81B0
:10064000C152D140C75EDE4F488359836A837B83A2
:10065000C951D140CF5CDE4F688179818A819B810D
:10066000C153D140C35EDE4F688379838A839B8305
:10067000CD51D140C55CDE4FA881CB53D140C45C85
:10068000DE4FB881CC53D1408E010F5F1E4FCD019C
:1006900080964D915D916D917D91F801C190D190C1
:1006A000E190F1908F019D01245031094C0D5D1DA9
:1006B0006E1D7F1DF90140835183628373838A1706
:1006C0009B0739F7CE5BDE4F0FB6F894DEBF0FBE47
:1006D000CDBFDF91CF911F910F91FF90EF90DF90F1
:1006E000CF90BF90AF909F908F907F906F905F90D2
:1006F0004F903F902F900895C75DDE4FE881F981BC
:10070000C952D140448155816681778100AD11ADD8
:1007100022AD33AD80819181A281B38184A095A067
:10072000A6A0B7A02C013D01480C591C6A1C7B1CDB
:10073000CF5DDE4F488259826A827B82C152D140AE
:1007400048015901FFE0880C991CAA1CBB1CFA95B2
:10075000D1F7D901C801E1E1B695A795979587959D
:10076000EA95D1F7882A992AAA2ABB2AD901C80171
:10077000FDE0880F991FAA1FBB1FFA95D1F728012A
:100780003901E3E17694679457944794EA95D1F759
:1007900084299529A629B72988259925AA25BB2525
:1007A000FAE03695279517950795FA95D1F78027A2
:1007B0009127A227B327CF5DDE4F88809980AA803A
:1007C000BB80C152D140880E991EAA1EBB1E2A01B1
:1007D0003B01A7E07694679457944794AA95D1F784
:1007E000DB01CA0119E1880F991FAA1FBB1F1A95C7
:1007F000D1F7482A592A6A2A7B2ADB01CA010EE06E
:10080000880F991FAA1FBB1F0A95D1F78A019B0168
:10081000E2E13695279517950795EA95D1F7802B54
:10082000912BA22BB32B84259525A625B725F3E084
:100830007695679557954795FA95D1F7842795272B
:10084000A627B727880D991DAA1DBB1DCB5DDE4FBE
:10085000E881F981C552D14080839183A283B3831B
:10086000B7CCCF5DDE4F488159816A817B81C1520F
:10087000D140CF5CDE4F488359836A837B83C15369
:10088000D140CF5DDE4FC882D982EA82FB82C1525D
:10089000D1406C017D01CB5DDE4F688179818A8119
:1008A0009B81C552D140C35DDE4F688379838A83C3
:1008B0009B83CD52D140CB5DDE4F88829982AA8244
:1008C000BB82C552D1404801590120CDCF92DF9261
:1008D000EF92FF920F931F93CF93DF93D82EC92EE1
:1008E0008B01E901F12CE12CEC16FD0649F4DF91B6
:1008F000CF911F910F91FF90EF90DF90CF900895CF
:10090000B8018D2D9C2D0E9475008FEFE81AF80A12
:10091000005C1F4FE9CF4F925F926F927F928F9250
:100920009F92AF92BF92CF92DF92EF92FF920F937E
:100930001F93CF93DF93CDB7DEB72E970FB6F89402
:10094000DEBF0FBECDBF49015A016B017C01F8012A
:10095000D80180E88D9340E050E0BA0117E7412EBE
:10096000512C612C712C481859086A087B08930196
:1009700082010F731127222733274017510762077F
:10098000730708F485C09401A501B601C70103E00F
:100990000E94F30DB62FA72F6C01B901CA010E9466
:1009A000EC0D69877A878B879C876B2F7A2FC6011E
:1009B00000E20E940E0EC901DA012FE34222552403
:1009C000E40DF51DAF014F5F5F4F5E874D87CB2E66
:1009D000DD24EE24FF24782F662755274427C42AD8
:1009E000D52AE62AF72A492F5A2F6B2F7727442733
:1009F00066277727C42AD52AE62AF72ABA2FA92FED
:100A0000982F882788279927BB27C82AD92AEA2A16
:100A1000FB2AA70196013A834B835C8349855A855B
:100A20006B857C859A01AB0160E070E080E090E02E
:100A30000E94F30DA82F822F8C2981838A81382B65
:100A4000ED85FE853183FB814F2BED85FE8542834D
:100A5000FC815F2BED85FE85538364837583A683BC
:100A600097832E960FB6F894DEBF0FBECDBFDF91F1
:100A7000CF911F910F91FF90EF90DF90CF90BF909B
:100A8000AF909F908F907F906F905F904F90089560
:100A90001D924F5F5F4F6F4F7F4F6FCF2F923F92EF
:100AA0004F925F926F927F928F929F92AF92BF927E
:100AB000CF92DF92EF92FF920F931F93CF93DF932A
:100AC000CDB7DEB7CF58D1090FB6F894DEBF0FBE51
:100AD000CDBF382E292ECF57DF4F0883C158D040C5
:100AE000C557DF4F1883CB58D040C457DF4F2883FA
:100AF000CC58D040C357DF4F3883CD58D040C25771
:100B0000DF4F4883CE58D040C157DF4F5883CF586E
:100B1000D0408B01B7019C2D8D2D6501E92EF82E5B
:100B20004501570180EC8822260137019FE34922C5
:100B3000552466247724DB01A80DB91DC757DF4F64
:100B4000B983A883C958D040A701960186E056957D
:100B50004795379527958A95D1F7832D922D0E9439
:100B6000660457019601A50160E070E080E090E026
:100B7000CF57DF4FA880C158D040C557DF4FB8804E
:100B8000CB58D040C457DF4FC880CC58D040C35753
:100B9000DF4FD880CD58D040C257DF4FE880CE58C5
:100BA000D040C157DF4FF880CF58D0400E94290E67
:100BB000CF57DF4F2883C158D040CE57DF4F3883FF
:100BC000C258D040CD57DF4F4883C358D040CC5790
:100BD000DF4F5883C458D040CB57DF4F6883C55888
:100BE000D040CA57DF4F7883C658D040C957DF4F2F
:100BF0008883C758D040C857DF4F9883C858D04023
:100C000097E7C92ED12CE12CF12CCF57DF4F8881EB
:100C10009981AA81BB81C158D040C81AD90AEA0A71
:100C2000FB0A9FE3C922DD24EE24FF24D301C20185
:100C30000996A11DB11DC80ED91EEA1EFB1E1A82FF
:100C40001982FE0133968EE7DF011D928A95E9F73E
:100C5000A201C757DF4F68817981C958D040CE01C2
:100C600001960E94320E01E010E00C0F1D1F040DD2
:100C7000151DCF57DF4F2881C158D040CE57DF4FC9
:100C80003881C258D040CD57DF4F4881C358D0403B
:100C9000CC57DF4F5881C458D040CB57DF4F6881C5
:100CA000C558D040CA57DF4F7881C658D040C95781
:100CB000DF4F8881C758D040C857DF4F9881C85848
:100CC000D0400E948B04A701960166E05695479597
:100CD000379527956A95D1F7BE016F5F7F4F832DBA
:100CE000922D0E946604C157DF4F0FB6F894DEBF05
:100CF0000FBECDBFDF91CF911F910F91FF90EF906D
:100D0000DF90CF90BF90AF909F908F907F906F902B
:100D10005F904F903F902F900895CF93DF9300D036
:100D200000D0CDB7DEB7FC01DB019C01205E3F4F58
:100D30004191519161917191CB01BA010E94EC0DE9
:100D400069837A838B839C836D937D938D939D932D
:100D5000E217F30769F70F900F900F900F90DF9154
:100D6000CF9108952F923F924F925F926F927F9210
:100D70008F929F92AF92BF92CF92DF92EF92FF92AB
:100D80000F931F93CF93DF93CDB7DEB7A0970FB626
:100D9000F894DEBF0FBECDBF3C01490180E2E1E423
:100DA000F1E0DE01119601900D928A95E1F71A01AA
:100DB0002B0180EC28225A016B018FE3A822BB246F
:100DC000CC24DD248301020D131D9A01AB0186E0C2
:100DD00056954795379527958A95D1F7B301CE015A
:100DE00001960E94660478018101920140E050E082
:100DF00060E070E0CE0101960E944E05B401CE0184
:100E000001960E948D06A0960FB6F894DEBF0FBE25
:100E1000CDBFDF91CF911F910F91FF90EF90DF90A9
:100E2000CF90BF90AF909F908F907F906F905F908A
:100E30004F903F902F900895CF93DF9300D000D034
:100E4000CDB7DEB7843038F4823000F584E090E02E
:100E5000A0E0B0E01FC084508230C0F381E08F93E7
:100E600082E38F9380EC92E09F938F9383EE92E0E6
:100E70009F938F93809130038F9380912F038F9353
:100E80000E94420E8DEF90E00E94F71088E090E003
:100E9000A0E0B0E089839A83AB83BC8369817A81C7
:100EA0008B819C810F900F900F900F90DF91CF91CD
:100EB0000895CF93DF9300D000D0CDB7DEB7843054
:100EC00038F4823000F580E490E0A0E0B0E01FC08C
:100ED00084508230C0F381E08F938AE58F9380EC59
:100EE00092E09F938F9383EE92E09F938F938091F4
:100EF00030038F9380912F038F930E94420E8DEFCA
:100F000090E00E94F71080E890E0A0E0B0E08983D4
:100F10009A83AB83BC8369817A818B819C810F909A
:100F20000F900F900F90DF91CF910895CF93DF93A3
:100F300000D000D0CDB7DEB78630C0F081E08F930F
:100F400082E88F9380EC92E09F938F9383EE92E000
:100F50009F938F93809130038F9380912F038F9372
:100F60000E94420E8DEF90E00E94F710E82FF0E013
:100F7000E959FE4F8081282F30E050E040E0CA015F
:100F8000B9010F900F900F900F90DF91CF910895BE
:100F9000CF93DF9300D000D0CDB7DEB78630C0F05E
:100FA00081E08F938AEA8F9380EC92E09F938F93F6
:100FB00083EE92E09F938F93809130038F93809183
:100FC0002F038F930E94420E8DEF90E00E94F71046
:100FD000E82FF0E0EF59FE4F8081282F30E050E0FD
:100FE00040E0CA01B9010F900F900F900F90DF9170
:100FF000CF9108952F923F924F925F926F927F927E
:101000008F929F92AF92BF92CF92DF92EF92FF9218
:101010000F931F93CF93DF93CDB7DEB7C05ED10997
:101020000FB6F894DEBF0FBECDBF382E292ECB01F0
:10103000F42FE52FA9016F2F7E2F560167014E0176
:1010400021E8820E911C20E4D4011D922A95E9F733
:10105000413451056105710508F0A6C0BC01C40109
:101060000E94320E3E01B1E46B0E711C40E450E070
:1010700066E370E0C3010E943B0EF3012401A4016A
:101080002191DA013D91AD01CF0101972327DC01C8
:101090002C93E815F905A1F740E450E06CE570E009
:1010A000CE0101960E943B0EFE0131964F01D40104
:1010B0008D914D01F20191912F01FD013197892709
:1010C0008083A615B70599F780E2EDE8F2E0DE012E
:1010D000AF53BF4F01900D928A95E1F7CE018F5328
:1010E0009F4F0E94650021E030E040E050E0B401F5
:1010F000CE018F539F4F0E946604780100E410E0F8
:1011000020E030E040E050E060E070E0CE018F533E
:101110009F4F0E944E05B401CE018F539F4F0E94F6
:101120008D06CE018F539F4F0E94650021E030E075
:1011300040E050E0BE016F5F7F4FCE018F539F4F65
:101140000E94660480E2A82EB12CC12CD12C74011F
:1011500020E030E040E050E060E070E0CE018F53EE
:101160009F4F0E944E05632D722DCE018F539F4FCE
:101170000E948D06C052DF4F0FB6F894DEBF0FBE3F
:10118000CDBFDF91CF911F910F91FF90EF90DF9036
:10119000CF90BF90AF909F908F907F906F905F9017
:1011A0004F903F902F90089594010E94B2065ACF1D
:1011B000CF93DF9300D000D0CDB7DEB7462F572FA7
:1011C000BC014F3F8FEF580768078FE77807F0F4AF
:1011D00081E090E0A0E0B0E04115510561057105A6
:1011E00031F0DB01CA01880F991FAA1FBB1F898339
:1011F0009A83AB83BC8369817A818B819C810F90B8
:101200000F900F900F90DF91CF9108958FEF9FEF88
:10121000DC01EDCF833030F4E82FF0E0E355FD4FF3
:10122000808108951F9280E38F9386E093E09F93DF
:101230008F9383EE92E09F938F93809130038F93EF
:1012400080912F038F930E94420E8DEF90E00E94B9
:10125000F7104F925F926F927F928F929F92AF9210
:10126000BF92CF92DF92EF92FF920F931F93CF9393
:10127000DF93CDB7DEB73C01CA01A601880F991FE5
:10128000880F991F860D971DF801EE0FFF1FEE0FB7
:10129000FF1FE60DF71DD401AA0FBB1FAA0FBB1F2E
:1012A0005D01A60CB71CDC01CD90DD90ED90FC90AB
:1012B00000811181228133810C0D1D1D2E1D3F1DCA
:1012C000D501CD90DD90ED90FC90C026D126E22690
:1012D000F326D60167017D01DC010D931D932D934B
:1012E0003C931397D501CD92DD92ED92FC9213972A
:1012F000440F551F440F551F9301240F351FD9016B
:101300004D915D916D917C911397C40ED51EE61E93
:10131000F71E40815181628173814C255D256E25C8
:101320007F252A013B011CE0440C551C661C771CE0
:101330001A95D1F704E176956795579547950A95E3
:10134000D1F74429552966297729CD92DD92ED926E
:10135000FC9213974083518362837383DC01CD90A9
:10136000DD90ED90FC904C0D5D1D6E1D7F1DD50137
:10137000CD90DD90ED90FC90C426D526E626F7268C
:10138000BC2DCF2CFE2CED2CDB2EDC014D935D9380
:101390006D937C931397D501CD92DD92ED92FC92E3
:1013A0001397D9018D909D90AD90BC9013978C0CA4
:1013B0009D1CAE1CBF1C40815181628173814825F8
:1013C00059256A257B256A017B0187E0CC0CDD1C51
:1013D000EE1CFF1C8A95D1F799E176956795579594
:1013E00047959A95D1F74C295D296E297F298D92D1
:1013F0009D92AD92BC921397408351836283738315
:10140000DF91CF911F910F91FF90EF90DF90CF90E0
:10141000BF90AF909F908F907F906F905F904F9014
:1014200008958F929F92AF92BF92CF92DF92EF92E8
:10143000FF920F931F93CF93DF93D82FC92F8CE088
:10144000882E912CA12CB12C98E0C92ED12CE12C06
:10145000F12C04E010E020E030E040E050E0BA0180
:101460008D2F9C2F0E9429092DE0822E912CA12CDA
:10147000B12C39E0C32ED12CE12CF12C05E010E089
:1014800020E030E041E050E060E070E08D2F9C2FE4
:101490000E9429094EE0842E912CA12CB12C5AE0F7
:1014A000C52ED12CE12CF12C06E010E020E030E03C
:1014B00042E050E060E070E08D2F9C2F0E942909EF
:1014C0006FE0862E912CA12CB12C7BE0C72ED12C65
:1014D000E12CF12C07E010E020E030E043E050E0A8
:1014E00060E070E08D2F9C2F0E942909EAE0CE2E4B
:1014F000D12CE12CF12C05E010E020E030E040E0C0
:1015000050E0BA018D2F9C2F0E942909FCE08F2EFC
:10151000912CA12CB12CABE0CA2ED12CE12CF12CBA
:1015200006E010E020E030E041E050E060E070E0F4
:101530008D2F9C2F0E942909BDE08B2E912CA12C70
:10154000B12C18E0C12ED12CE12CF12C07E010E0D9
:1015500020E030E042E050E060E070E08D2F9C2F12
:101560000E9429090EE0802E912CA12CB12C89E03B
:10157000C82ED12CE12CF12C04E010E020E030E06A
:1015800043E050E060E070E08D2F9C2F0E9429091D
:10159000DF91CF911F910F91FF90EF90DF90CF904F
:1015A000BF90AF909F908F900895AF92BF92CF92CF
:1015B000DF92EF92FF920F931F93CF93DF93FC0183
:1015C0005A0185E698E7A0E7B1E680839183A2837C
:1015D000B3838EE694E6A0E2B3E384839583A68387
:1015E000B78382E39DE2A2E6B9E780879187A2876D
:1015F000B38784E795E6A0E2BBE684879587A68754
:10160000B787DB01CF014096AB01405E5F4FCD90C5
:10161000DD90ED90FD90EC01C992D992E992F9929A
:10162000CE014A175B0799F700AB11AB22AB33AB86
:10163000E50188819981AA81BB8184AB95ABA6AB7A
:10164000B7AB8C819D81AE81BF8180AF91AFA2AFDE
:10165000B3AF88859985AA85BB8584AF95AFA6AFC2
:10166000B7AFDF91CF911F910F91FF90EF90DF9077
:10167000CF90BF90AF9008952F923F924F925F927C
:101680006F927F928F929F92AF92BF92CF92DF9292
:10169000EF92FF920F931F93CF93DF93CDB7DEB7F7
:1016A000C158D1090FB6F894DEBF0FBECDBF4C01B3
:1016B000B62EA72E69017A01CF57DF4F1883C15884
:1016C000D04080E4F401DE01AF5BBF4F01900D928A
:1016D0008A95E1F7E5968CAD9DADAEADBFADE597D2
:1016E0008C0D9D1DAE1DBF1DE5968CAF9DAFAEAFA1
:1016F000BFAFE597CE018F5B9F4F0E94110ACE01CD
:101700008F5B9F4F0E94110ACE018F5B9F4F0E94FB
:10171000110ACE018F5B9F4F0E94110ACE018F5B91
:101720009F4F0E94110ACE018F5B9F4F0E94110AAA
:10173000CE018F5B9F4F0E94110ACE018F5B9F4F9E
:101740000E94110ACE018F5B9F4F0E94110ACE01A9
:101750008F5B9F4F0E94110A9E012F5B3F4FF40148
:10176000C401805C9F4F1901D1014D905D906D9037
:101770007D901D0141915191619171914D01B4E0B4
:101780008B1A9108440E551E661E771ED4014D9289
:101790005D926D927C921397E817F90729F7E59609
:1017A0008CAD9DADAEADBFADE5978C0D9D1DAE1D55
:1017B000BF1DE5968CAF9DAFAEAFBFAFE597DE0125
:1017C000119680E4FD0111928A95E9F7802ECF579A
:1017D000DF4F9880C158D040CD01B401605C7F4F8D
:1017E000AD01F401C190D190E190F1904F01FA0167
:1017F000C192D192E192F192AF018616970689F7D4
:101800004D01F0E48F0E911C4D915D916D917D9194
:10181000F901C190D190E190F1909F018D010450A8
:1018200011094C255D256E257F25F80140835183E4
:1018300062837383A815B90539F7EB2DFA2D9F0143
:10184000205C3F4FDC014D915D916D917D91CD010B
:1018500041935193619371932E173F0799F7CF5797
:10186000DF4F0FB6F894DEBF0FBECDBFDF91CF9133
:101870001F910F91FF90EF90DF90CF90BF90AF90AE
:101880009F908F907F906F905F904F903F902F90A0
:1018900008952F923F924F925F926F927F928F9214
:1018A0009F92AF92BF92CF92DF92EF92FF920F93EF
:1018B0001F93CF93DF93CDB7DEB7C854D1090FB6CE
:1018C000F894DEBF0FBECDBF382E292E6A017B01F2
:1018D00022962FAF229723963FAF239724960FAFE0
:1018E000249725961FAF2597DB01CA018F7399278F
:1018F000AA27BB2729968CAF9DAFAEAFBFAF299764
:1019000096E0F694E794D794C7949A95D1F72396E6
:10191000AEACBFAC239725968EAC9FAC2597412CDF
:10192000512C32014C145D046E047F0409F059C03F
:1019300029968CAD9DADAEADBFAD2997892B8A2B75
:101940008B2BA9F1B20186E0660F771F8A95E1F72C
:101950002396EEACFFAC2397E60EF71E1A8219828F
:10196000FE0133968EE3DF011D928A95E9F72596F5
:101970008EAD9FAD2597680F791F27964EAD5FAD51
:101980002797CE0101960E94320E8E010F5F1F4FE6
:10199000A3019201B801832D922D0E943C0B279642
:1019A0004EAD5FAD2797B801C7010E94320EC85BEC
:1019B000DF4F0FB6F894DEBF0FBECDBFDF91CF91E2
:1019C0001F910F91FF90EF90DF90CF90BF90AF905D
:1019D0009F908F907F906F905F904F903F902F904F
:1019E00008958401A3019201B501832D922D0E94D7
:1019F0003C0B9FEF491A590A690A790AA0E4AA0E1A
:101A0000B11CB0E48B0E911C8DCF2F923F924F9260
:101A10005F926F927F928F929F92AF92BF92CF927E
:101A2000DF92EF92FF920F931F93CF93DF93CDB787
:101A3000DEB7C054D1090FB6F894DEBF0FBECDBFDC
:101A40003B014C012A011901B801A701850196014A
:101A5000CE0101967C0180E4F70111928A95E9F7A5
:101A6000C7010E94D50A81019201A301B401C701F7
:101A70000E94490CC05CDF4F0FB6F894DEBF0FBE6A
:101A8000CDBFDF91CF911F910F91FF90EF90DF902D
:101A9000CF90BF90AF909F908F907F906F905F900E
:101AA0004F903F902F900895AF92BF92CF92DF92C8
:101AB000EF92FF920F931F930E94050D1F910F91BC
:101AC000FF90EF90DF90CF90BF90AF90089510926D
:101AD000CD008AE08093CC00E8ECF0E080818D7F3F
:101AE000808386E08093CA0088E18093C9000C94CB
:101AF000ABF68091C80087FFFCCF8091CE000C949C
:101B0000ABF6CF93C82F8A3019F48DE00E94810D77
:101B10008091C80085FFFCCFC093CE00CF910C947C
:101B2000ABF6CF93DF93EC018991811104C0DF9173
:101B3000CF910C94ABF60E94810DF6CFCDB7DEB7F6
:101B4000C058D1090FB6F894DEBF0FBECDBF0E94BA
:101B5000670D84B1806684B96E0182E4C80ED11C21
:101B60008E010F5F1F4F78010E94790DF70181935D
:101B70007F01EC15FD05C1F78FE60E94810DC801BC
:101B80000E94A7F489817801813061F4F2E2EF0EBE
:101B9000F11CF80181918F010E94810DE016F10680
:101BA000C1F7DECFF1E2EF0EF11CF80181918F0158
:101BB0000E94810D0E151F05C1F789818111D0CFBB
:101BC0008E010E5D1F4FF80181918F010E94810DE2
:101BD0000C151D05C1F7C4CF6927962769277827FB
:101BE000872778270895002E083090F0982F872FA8
:101BF000762F652F542F432F322F22270850F4CFF2
:101C0000220F331F441F551F661F771F881F991F00
:101C10000A95B2F7002D089597FD1094002E083014
:101C200098F00850232F342F452F562F672F782FE9
:101C3000892F912DF4CF1594979587957795679572
:101C400057954795379527950A95AAF71124002DA2
:101C500008952A0D3B1D4C1D5D1D6E1D7F1D801FAF
:101C6000911F0895FB01DC0102C001900D924150CB
:101C70005040D8F70895DC0101C06D9341505040A9
:101C8000E0F70895CF93DF93CDB7DEB7AE01475F9E
:101C90005F4F6F8178858D819E810E94520EDF910A
:101CA000CF9108952F923F924F925F926F927F92C1
:101CB0008F929F92AF92BF92CF92DF92EF92FF925C
:101CC0000F931F93CF93DF93CDB7DEB72F970FB648
:101CD000F894DEBF0FBECDBF7C013B018A01DC0161
:101CE00017961C921E92169713968C9181FFD8C15D
:101CF0009AE0292EFE0131964F01D70113969C914F
:101D0000F30193FD859193FF81913F01882309F4AD
:101D100048C1853239F493FD859193FF81913F014C
:101D2000853229F4B70190E00E946910E6CFB12C0A
:101D3000412C512CBFE1B51538F08B3209F188F4F4
:101D4000803201F1833221F157FC3AC020ED280F97
:101D50002A3040F556FE1FC0B29C200D1124B22E31
:101D600006C08D3291F0803379F7689450F8F30112
:101D700093FD859193FF81913F018111DBCF20C0BD
:101D8000689451F8689452F8F2CF689453F8EFCF02
:101D9000689454F8ECCF429C200D1124422E689494
:101DA00055F8E5CF8E3229F456FCFBC0689456F8FE
:101DB000DECF8C3619F4689457F8D9CF8836B9F24B
:101DC000982F9F7D95549330C0F08336A1F18337CF
:101DD000C1F1833509F05BC0D801CD90DD908D0154
:101DE0006B2D70E056FC02C06FEF7FEFC6010E94C2
:101DF00053105C01689457F80AC00C5F1F4FEFE363
:101E0000E983AA24A394B12C6401E89457F853FC05
:101E100004C04A141B0409F018F5342CA114B104B1
:101E200031F5332009F469CFB70180E290E00E94D8
:101E300069103A94F6CFD8018C9189830E5F1F4FB9
:101E4000E0CFF801C190D1908F016B2D70E056FC6E
:101E500002C06FEF7FEFC6010E945E105C01D5CF1C
:101E6000B70180E290E00E9469104A94D2CFF60157
:101E700057FC859157FE81916F01B70190E00E9458
:101E8000691031103A94B1E0AB1AB108C7CF84366B
:101E900019F0893609F074C0F80157FE6AC06191E3
:101EA0007191819191918F01E52DEF76DE2E97FF53
:101EB00009C090958095709561957F4F8F4F9F4F8A
:101EC0006894D7F82AE030E0A4010E949910C82E47
:101ED000C818AC2C5D2CD6FE0CC0E89450F8CB147E
:101EE00040F4D4FE05C0D2FC03C05D2D5E7E552EAD
:101EF000AB2C54FEADC0FE01EC0DF11D8081803392
:101F000009F09FC0652D697E562E752D7870372E8D
:101F100053FCADC050FEA7C0BC2CA41418F44C0C4C
:101F2000B42CBA1854FEA9C0B70180E390E00E9417
:101F3000691052FE09C088E790E051FE02C088E5B2
:101F400090E0B7010E946910CB1408F4A2C0CA94B3
:101F5000D12C8FEFC81AD80AC80CD91CD6018E9183
:101F60006D01B70190E00E9469108C149D04B1F7D7
:101F700058CF61917191072E000C880B990B93CF6C
:101F8000D52CE894D4F82AE030E08537E1F1F52D3E
:101F9000F97FDF2E803751F100F5883551F18F360A
:101FA00081F1F701868197812F960FB6F894DEBFF5
:101FB0000FBECDBFDF91CF911F910F91FF90EF909A
:101FC000DF90CF90BF90AF909F908F907F906F9059
:101FD0005F904F903F902F900895883711F7D4FE6F
:101FE00002C06894D2F820E130E00DC06894D4F8C3
:101FF000F6CF54FE03C02F2F2660D22E20E132E010
:1020000002C028E030E0F801D7FE15C0419151919F
:10201000619171914C875D876E877F878F01A401E5
:102020006C857D858E859F850E949910C82EC81865
:10203000E894D7F84ECF81919191AC0170E060E0C7
:10204000E9CF52FC02C0A39460CFA394A3945DCFC8
:10205000852D867809F459CFF6CFB70180E290E05C
:102060000E946910A394A414C0F3312C5BCF342CCC
:102070003A18A41408F456CFF8CF852D867809F4C1
:1020800063CF8BE251FE80E257FC8DE2B70190E016
:1020900059CFB70180E390E00E946910BA9454CF01
:1020A0008FEF9FEF81CFFC010590615070400110D0
:1020B000D8F7809590958E0F9F1F0895FC01615071
:1020C000704001900110D8F7809590958E0F9F1F5A
:1020D00008950F931F93CF93DF93182F092FEB01D0
:1020E0008B8181FD09C01FEF0FEF812F902FDF91B2
:1020F000CF911F910F91089582FF14C02E813F81CF
:102100008C819D81281739073CF4E881F981CF0142
:1021100001969983888310838E819F8101969F8386
:102120008E83E3CFE885F985812F0995892BA1F36B
:10213000DACFFA01AA27283051F1203181F1E89451
:102140006F936E7F6E5F7F4F8F4F9F4FAF4FB1E0AA
:102150003ED0B4E03CD0670F781F891F9A1FA11DA5
:10216000680F791F8A1F911DA11D6A0F711D811DA6
:10217000911DA11D20D009F468943F912AE0269F6B
:1021800011243019305D3193DEF6CF010895462FCA
:102190004770405D4193B3E00FD0C9F7F6CF462FAB
:1021A0004F70405D4A3318F0495D31FD4052419314
:1021B00002D0A9F7EACFB4E0A695979587957795D1
:1021C0006795BA95C9F700976105710508959B0158
:1021D000AC010A2E06945795479537952795BA95E1
:1021E000C9F7620F731F841F951FA01D0895F894EF
:1021F000FFCF016E26886E4E0707E1B30F24160E3F
:1022000099B912E461C424B30F24160E99B912E4EB
:1022100061C42467E6096A85AE67BB72F36E3C3A17
:10222000F54FA57F520E518C68059BABD9831F19C2
:10223000CDE05B67E6096A85AE67BB72F36E3C3A38
:10224000F54FA57F520E518C68059BABD9831F19A2
:10225000CDE05B1C203040141007080608050498E8
:102260002F8A4291443771CFFBC0B5A5DBB5E95B3E
:10227000C25639F111F159A4823F92D55E1CAB9838
:10228000AA07D8015B8312BE853124C37D0C557427
:102290005DBE72FEB1DE80A706DC9B74F19BC1C1FE
:1022A000699BE48647BEEFC69DC10FCCA10C246F8D
:1022B0002CE92DAA84744ADCA9B05CDA88F976523C
:1022C000513E986DC631A8C82703B0C77F59BFF3E8
:1022D0000BE0C64791A7D55163CA06672929148523
:1022E0000AB72738211B2EFC6D2C4D130D38535483
:1022F000730A65BB0A6A762EC9C281852C7292A1C7
:10230000E8BFA24B661AA8708B4BC2A3516CC719C9
:10231000E892D1240699D685350EF470A06A10167D
:10232000C1A419086C371E4C774827B5BCB034B32C
:102330000C1C394AAAD84E4FCA9C5BF36F2E68EE2C
:10234000828F746F63A5781478C8840802C78CFAEA
:10235000FFBE90EB6C50A4F7A3F9BEF27871C6678C
:10236000E6096A85AE67BB72F36E3C3AF54FA57F0E
:10237000520E518C68059BABD9831F19CDE05B676A
:10238000E6096A85AE67BB72F36E3C3AF54FA57FEE
:10239000520E518C68059BABD9831F19CDE05B02AF
:1023A0000001657870616E642033322D6279746546
:1023B000206B2E2E2F2E2E2F636F72652F63727956
:1023C00070746F2F6861636C2F4861636C5F484164
:1023D00053482E63004B72654D4C696E20696E63E5
:1023E0006F6D706C657465206D61746368206174D5
:1023F0002025733A25640A002E2E2F2E2E2F636F70
:1024000072652F63727970746F2F6861636C2F48E7
:0C24100061636C5F537065632E63000015
:10EF00001C24F2210500780D800D900D9A0DC10D85
:10EF10000F983E1BE1B9A36331FF58F73E6A6D6558
:10EF2000208CBE0484CE9CD4014A5395357B5EF37D
:020000040001F9
:10E000009C0181E08BBFE2E0FFED879196919695B0
:10E0100087952817390768F08AEB9EEEFC01479137
:10E0200056912417350769F00296452BB9F780E021
:10E030000895E4E0FFED8791969146E05FED811150
:10E0400002C081E00895FA0167917691261737079B
:10E0500071F34E5F5F4F8150F2CFFF920F931F938A
:10E06000CF93DF938A019B0143E0F80120935B008B
:10E0700040935700E89507B600FCFDCFDC01EC01AA
:10E08000D395B901A801FF24F3948C9111969C912A
:10E0900011970C01FA0160935B00F0925700E8952C
:10E0A00011244E5F5F4F6F4F7F4F1296CA17DB07E9
:10E0B00061F785E0F80120935B0080935700E895B5
:10E0C00007B600FCFDCF81E180935700E895DF9112
:10E0D000CF911F910F91FF900895DC01FB014C300F
:10E0E00019F0403249F0089581E08BBF8CE0079031
:10E0F0000D928A95E1F7089581E08BBF80E2079049
:10E100000D928A95E1F70895262FFA01DC012BBFC5
:10E11000222707900D922395E1F70895CF93AB0145
:10E12000CFB7F8946115704F38F470E060E050514B
:10E130006F4F7F4F0E942DF0CFBF7894CF910895FD
:10E14000FC01680F792F711D8FEFE617F70709F4AF
:10E1500008958193FACF3F924F925F926F927F9290
:10E160008F929F92AF92BF92CF92DF92EF92FF92E7
:10E170000F931F93CF93DF93CDB7DEB7AC970FB656
:10E18000F894DEBF0FBECDBF4C012A013B013FB664
:10E19000F8944CE06EE47EEECE0181960E946DF024
:10E1A00040E26AE97EEECE0101960E946DF0A12C5C
:10E1B000B12C6501CE0181967C018E010F5F1F4F4E
:10E1C0009401A401B201C3010E94540D6CE0C70187
:10E1D0000E94A0F060E2C8010E94A0F03FBE7894C7
:10E1E000AC960FB6F894DEBF0FBECDBFDF91CF91D6
:10E1F0001F910F91FF90EF90DF90CF90BF90AF9065
:10E200009F908F907F906F905F904F903F90089578
:10E210002F923F924F925F926F927F928F929F9236
:10E22000AF92BF92CF92DF92EF92FF920F931F9324
:10E23000CF93DF93CDB7DEB7C450D2400FB6F8947A
:10E24000DEBF0FBECDBFCD5FDD4F8883C350D24050
:10E25000CC5FDD4F9883C450D2406A017B01190125
:10E26000702E40E26AE97EEECE018F519E4F0E94F1
:10E270006DF08E010F571E4FF801B09680E2DF015E
:10E28000982F1D929A95E9F7E05CFF4FD801019015
:10E290000D928A95E1F74E01AFEB8A1AAEEF9A0A1A
:10E2A00040E450E066E370E0C4010E943B0EF401DC
:10E2B0005801A8018191DA019D91AD019F01215082
:10E2C00031098927D9018C93E017F10799F740E4C8
:10E2D00050E06CE570E0CE018F5F9E4F0E943B0ED8
:10E2E000FE01EF5FFE4F8191D5019D915D01DF0140
:10E2F000119789278C93E815F905A9F780E2E1E2E7
:10E30000F1E0DE01AF53BE4F01900D928A95E1F727
:10E31000CE018F539E4F0E94650021E030E040E027
:10E3200050E0B401CE018F539E4F0E9466048E01CF
:10E330000F5F1F4FB1E07B121CC02101712C612CBB
:10E34000C414D504E604F704C0F4B701A601C8015B
:10E350000E9484F024E030E040E050E0B801CE01BB
:10E360008F539E4F0E9466049FEFD91AE90AF90A5B
:10E37000E7CF82E0781609F4BFC0B401CE018F5315
:10E380009E4F0E948D06CE018F539E4F0E946500C6
:10E3900021E030E040E050E0BE016F5F7E4FCE01F3
:10E3A0008F539E4F0E94660480E2A82EB12CC12C90
:10E3B000D12C740100E410E020E030E040E050E0B7
:10E3C00060E070E0CE018F539E4F0E944E05CD5FFE
:10E3D000DD4F6881C350D240CC5FDD4F7881C4509F
:10E3E000D240CE018F539E4F0E948D0660E0CE0139
:10E3F00001960E94A0F060E2CE018F519E4F0E94D4
:10E40000A0F0CC5FDD4F0FB6F894DEBF0FBECDBFDE
:10E41000DF91CF911F910F91FF90EF90DF90CF9000
:10E42000BF90AF909F908F907F906F905F904F9034
:10E430003F902F900895B301A201CF5FDD4F8881F7
:10E44000C150D240CE5FDD4F9881C250D2400E9471
:10E4500084F024E030E040E050E0CF5FDD4F6881A1
:10E46000C150D240CE5FDD4F7881C250D240CE0144
:10E470008F539E4F0E946604BA94BFEF5B1A6B0ADB
:10E480007B0A8FEFA816B10409F0A8F6432D552793
:10E4900080E0849F5001859FB00CB41A11242A0C8F
:10E4A0003B1C70E060E0762F652F542F44274C0D05
:10E4B0005D1D6E1D7F1DC8010E9484F040E05FED70
:10E4C00061E070E0C801820D931D0E9484F093E02A
:10E4D000290E311C5101D12CC12C780100E410E02F
:10E4E00020E030E040E050E060E070E0CE018F538B
:10E4F0009E4F0E944E0541CF510126013701CF5F4B
:10E50000DD4F0883C150D240CE5FDD4F1883C2502B
:10E51000D240B7CFAF92BF92DF92EF92FF920F93AC
:10E520001F93CF93DF93CDB7DEB7C052D1400FB664
:10E53000F894DEBF0FBECDBFD82EE92E81E08BBF91
:10E54000E0E0FFEDA790B690E4E0FFED2791369173
:10E5500083E0F82EF20E02E010E0950140E050EF6B
:10E5600060E070E0CE0101960E9408F16F2D660F09
:10E570006A0D7B2D711D81E090E08C0F9D1F680F4F
:10E58000791F40E250E093950E9411F740E250E07D
:10E59000BE016F5F7E4FCE0101960E941AF7892B54
:10E5A000D9F440E250E0BE016F5F7E4F8D2D9E2D6D
:10E5B0000E9411F781E0C05EDE4F0FB6F894DEBF17
:10E5C0000FBECDBFDF91CF911F910F91FF90EF90C4
:10E5D000DF90BF90AF90089580E0EDCF2F923F92F3
:10E5E0004F925F926F927F928F929F92AF92BF9263
:10E5F000CF92DF92EF92FF920F931F93CF93DF930F
:10E60000CDB7DEB7C052D1400FB6F894DEBF0FBE13
:10E61000CDBF5C012B0149013FB693E0292E3901A2
:10E6200081E2680E711C83E0442309F471C0A414D4
:10E63000B504E0F03FBE7894C05EDE4F0FB6F894AC
:10E64000DEBF0FBECDBFDF91CF911F910F91FF9025
:10E65000EF90DF90CF90BF90AF909F908F907F9082
:10E660006F905F904F903F902F900895C501B0E05C
:10E67000A0E0FC01A0935B0020925700E89507B64C
:10E6800000FCFDCFB39440E26AE77EEECE018F5FDF
:10E690009E4F0E946DF0F4013196AE014E5F5F4FC8
:10E6A000CF0120A1DA012D93AD013196DC018C91CF
:10E6B000DA015F968C93E615F70591F781E4C82E91
:10E6C000D12CE12CF12C8E010F5F1F4F20E230E0A6
:10E6D00040E050E0BE016F5F7E4FC3010E94FA0729
:10E6E00060E2CE018F5F9E4F0E94A0F060E0C80103
:10E6F0000E94A0F09CCFA50170E060E0FA01609359
:10E700005B0080935700E89507B600FCFDCFB394FB
:10E71000A414B50480F383E040E05FED61E070E0B5
:10E72000FA0160935B0080935700E89507B600FC00
:10E73000FDCF80CF5F926F927F928F929F92AF9228
:10E74000BF92CF92DF92EF92FF920F931F93CF93DE
:10E75000DF93CDB7DEB7DA950FB6F894DEBF0FBE04
:10E76000CDBFC82E792E81E08BBFE2E0FFED879010
:10E77000969096948794D12C612CA12C50EFB52EB5
:10E78000F12CE12C552453948E149F0409F03EC0C3
:10E790008C2D972D0E948AF2882309F443C081E0D2
:10E7A0008BBFE0E0FFED8791969101E010E08111D1
:10E7B00002C010E000E0892F9927080F191FD12C03
:10E7C000C12CF12CE12C0E151F0509F06BC040E0A7
:10E7D0005FED61E070E0CE0101960E9484F040E0C0
:10E7E0005FEE60E070E0CE0101960E942DF08E0198
:10E7F0000F5F1F4F30E020E040E05FED61E070E030
:10E8000080E090EF0E94EEF281E00DC06BBEF5015A
:10E8100007911691C801DD2009F472C00E9400F032
:10E82000811156C080E0D3950FB6F894DEBF0FBEBD
:10E83000CDBFDF91CF911F910F91FF90EF90DF90AF
:10E84000CF90BF90AF909F908F907F906F905F9090
:10E850000895C8018827987F8115904FB9F433E057
:10E86000169507953A95E1F798012F77332706FF1C
:10E8700002C020683F6FC7010196820F931F0E945C
:10E8800000F0882309F459C0D12C2DC0C801882775
:10E89000907E8115904CC1F798013F7013FFEBCF2C
:10E8A000306FE9CFB12CA12CB501A60150516F4FAB
:10E8B0007F4FCE0101960E9484F0B501A601CE01E2
:10E8C00001960E942DF08FEFE81AF80AD3947BCFBF
:10E8D000C8018D7F8C309449B9F4C7010E9400F0C3
:10E8E0008111A0CFD5248FEFE81AF80A22E0A20EFA
:10E8F000B11CA114B10409F047CF6624639444CF3E
:10E900008D7F8C30944971F3C801885095490297E6
:10E91000A0F0083125E9120781F0093084E91807D1
:10E9200061F0083D25E9120741F0C8018F709E7F14
:10E9300086509049029708F08CCFDD2009F472CF01
:10E94000C7010E9400F0882309F49ECF6BCF4F923D
:10E950005F926F927F928F929F92AF92BF92CF926F
:10E96000DF92EF92FF920F931F93CF93DF93CDB778
:10E97000DEB7C556D1400FB6F894DEBF0FBECDBF8F
:10E980004C015FB6F894DC014D905D0140E26AE70E
:10E990007EEECE018C5B9E4F0E946DF030E2C32E66
:10E9A000D12CE12CF12C850120E230E040E050E058
:10E9B000BE016C5B7E4FCE018C5D9E4F0E94FA07BC
:10E9C0003E01BBE96B1ABEEF7B0AF401B1967F01F1
:10E9D0004614170409F008F4DBC040E250E0BF0120
:10E9E000CE018C5D9E4F0E941AF7892B09F0D0C092
:10E9F00001E020E038E240E050E0BA01C7010E94A7
:10EA000008F140E261E071E0CE018C5D9E4F0E9412
:10EA10006DF040E250E0B701CE018C5D9E4F0E9448
:10EA20001AF79C01D3019C91232B09F07FC081E050
:10EA3000CF5FDE4F8883C150D140CC59DE4F8881F3
:10EA4000C456D140CE5FDE4F8883C250D140CD5FE7
:10EA5000DE4F9883C350D140F501A1E0B1E0AC0F87
:10EA6000BD1F139681918D93EE15FF05D9F723E213
:10EA7000C22ED12CE12CF12C8E010F5F1E4F20E213
:10EA800030E040E050E0BE016C5B7E4FC401029676
:10EA90000E94FA0781E0F4018083CC59DE4F88811F
:10EAA000C456D14081838AE293E04C01990FAA08B1
:10EAB000BB08B501A401CE0101960E9484F04982F1
:10EAC000B501A401CE0101960E942DF060E2CE01B5
:10EAD0008C5B9E4F0E94A0F060E2CE018C5D9E4F49
:10EAE0000E94A0F061E0C3010E94A0F061E0CE01AD
:10EAF0008C599E4F0E94A0F05FBE7894CB59DE4F98
:10EB00000FB6F894DEBF0FBECDBFDF91CF911F913E
:10EB10000F91FF90EF90DF90CF90BF90AF909F90BC
:10EB20008F907F906F905F904F90089519829A8395
:10EB3000F501CE010396A501DA012D91AD01DC01AD
:10EB40002D93CD014E155F05B9F78191878FEE1595
:10EB5000FF05D9F792E2C92ED12CE12CF12C8E01C0
:10EB60000F5F1F4F20E230E040E050E0BE016C5BE1
:10EB70007E4FC5010E94FA07F4011082940141E022
:10EB800050E060E078E290E080E00E94EEF29ECFFC
:10EB90001982D3018C918A83F501DE01139681914C
:10EBA0008D93EE15FF05D9F782E2C82ED12CE12C0A
:10EBB000F12C8E010F5F1F4F20E230E040E050E06B
:10EBC000BE016C5B7E4FC5010E94FA0782E0F40132
:10EBD00080837CCFCF93DF93CDB7DEB7C152D140D6
:10EBE0000FB6F894DEBF0FBECDBF5C014B017FB600
:10EBF000F89440E26AE57EEECE018F5F9E4F0E9460
:10EC00006DF02E018FED481A8EEF580AC12CD12CD1
:10EC10007601C394820120E230E040E050E0BE0182
:10EC20006F5F7E4FCE0101960E94FA07F501808149
:10EC30008415150480F040E250E0B5016F5F7F4F0E
:10EC4000CE0101960E941AF7892B29F4C5010E9472
:10EC50009AF3811118C0B4017051950150E040E061
:10EC600080E090EF0E94EEF260E2CE018F5F9E4F57
:10EC70000E94A0F060E0CE0101960E94A0F07FBE4D
:10EC800078940C94000080E091E06C01990FEE08FC
:10EC9000FF08B701A601CE0101960E9484F0898188
:10ECA0008F5F8983B701A601CE0101960E942DF0E6
:10ECB00081E091E06C01990FEE08FF08B701A60111
:10ECC000CE0101960E9484F0F501DE011196C50186
:10ECD000809621912D93E817F907D9F7B701A6017E
:10ECE000CE0101960E942DF040E261E071E0CE017C
:10ECF00002960E946DF081E2C82ED12CE12CF12CFD
:10ED00008E010F5F1F4F20E230E040E050E0BE0177
:10ED10006F5F7E4FC5010E94FA07A6CF2F932FB7D2
:10ED2000F8942F932BB72F933F934F938F939F93E9
:10ED3000EF93FF93CF014FD0882361F0FF91EF91C4
:10ED40009F918F914F913F912F912BBF2F912FBF6B
:10ED50002F910994FFCF2F932FB7F8942F932BB7B0
:10ED60002F933F934F938F939F93EF93FF93EDB721
:10ED7000FEB73A96919180812ED0882359F3FF9166
:10ED8000EF919F918F914F913F912F912BBF2F9199
:10ED90002FBF2F9108952F932FB7F8942F932BB750
:10EDA0002F933F934F938F939F93EF93FF93EDB7E1
:10EDB000FEB73A96919180810ED0882359F2FF9147
:10EDC000EF919F918F914F913F912F912BBF2F9159
:10EDD0002FBF2F911895E2E0FFEE259134913695E3
:10EDE00027958217930778F0EAEBFEEE21E02BBF20
:10EDF000279137918217930711F481E00895232B0F
:10EE0000B9F780E00895E4E0FFEE4491E6E0FFEE1C
:10EE1000442399F3259135918217930791F341503B
:10EE2000F7CFFB01DC0102C001900D924150504030
:10EE3000D8F70895FB01DC0104C08D910190801981
:10EE400021F441505040C8F7881B990B089516884B
:10EE5000266E4E0707E1B30F24E66E26886E4E0736
:10EE600007E1B30F24160E99B912E461C424B30F5D
:10EE700024160E99B912E461C4246E26886E4E07DA
:10EE800007E1B30F24160E99B912E461C424B30F3D
:10EE900024160E99B912E461C4246E26886E4E07BA
:10EEA00007E1B30F24160E99B912E461C424B30F1D
:10EEB00024160E99B912E461C4248EF6ABF6CBF693
:0AEEC0008EF0ABF0A7F4EAF50000B5
:00000001FF
